{"contracts/OrderBookV2.sol":{"OrderBookV2":{"abi":[{"anonymous":false,"inputs":[{"indexed":true,"internalType":"uint256","name":"orderId","type":"uint256"}],"name":"OrderCancelled","type":"event"},{"anonymous":false,"inputs":[{"indexed":true,"internalType":"uint256","name":"orderId","type":"uint256"}],"name":"OrderFilled","type":"event"},{"anonymous":false,"inputs":[{"indexed":true,"internalType":"uint256","name":"orderId","type":"uint256"},{"indexed":true,"internalType":"address","name":"maker","type":"address"},{"indexed":false,"internalType":"uint256","name":"marketId","type":"uint256"},{"indexed":false,"internalType":"uint256","name":"outcomeId","type":"uint256"},{"indexed":false,"internalType":"uint256","name":"amount","type":"uint256"},{"indexed":false,"internalType":"uint256","name":"price","type":"uint256"},{"indexed":false,"internalType":"bool","name":"isBuy","type":"bool"}],"name":"OrderPlaced","type":"event"},{"inputs":[{"internalType":"uint256","name":"orderId","type":"uint256"}],"name":"cancelOrder","outputs":[],"stateMutability":"nonpayable","type":"function"},{"inputs":[{"internalType":"uint256","name":"","type":"uint256"}],"name":"cancelled","outputs":[{"internalType":"bool","name":"","type":"bool"}],"stateMutability":"view","type":"function"},{"inputs":[{"internalType":"uint256","name":"orderId","type":"uint256"}],"name":"getOrder","outputs":[{"components":[{"internalType":"address","name":"maker","type":"address"},{"internalType":"uint256","name":"marketId","type":"uint256"},{"internalType":"uint256","name":"outcomeId","type":"uint256"},{"internalType":"uint256","name":"amount","type":"uint256"},{"internalType":"uint256","name":"price","type":"uint256"},{"internalType":"bool","name":"isBuy","type":"bool"},{"internalType":"bool","name":"filled","type":"bool"}],"internalType":"struct OrderBookV2.Order","name":"","type":"tuple"}],"stateMutability":"view","type":"function"},{"inputs":[],"name":"getOrderCount","outputs":[{"internalType":"uint256","name":"","type":"uint256"}],"stateMutability":"view","type":"function"},{"inputs":[{"internalType":"uint256","name":"","type":"uint256"}],"name":"orders","outputs":[{"internalType":"address","name":"maker","type":"address"},{"internalType":"uint256","name":"marketId","type":"uint256"},{"internalType":"uint256","name":"outcomeId","type":"uint256"},{"internalType":"uint256","name":"amount","type":"uint256"},{"internalType":"uint256","name":"price","type":"uint256"},{"internalType":"bool","name":"isBuy","type":"bool"},{"internalType":"bool","name":"filled","type":"bool"}],"stateMutability":"view","type":"function"},{"inputs":[{"internalType":"uint256","name":"marketId","type":"uint256"},{"internalType":"uint256","name":"outcomeId","type":"uint256"},{"internalType":"uint256","name":"amount","type":"uint256"},{"internalType":"uint256","name":"price","type":"uint256"},{"internalType":"bool","name":"isBuy","type":"bool"}],"name":"placeOrder","outputs":[{"internalType":"uint256","name":"","type":"uint256"}],"stateMutability":"nonpayable","type":"function"}],"evm":{"bytecode":{"linkReferences":{},"object":"608060405234801561001057600080fd5b50610b85806100206000396000f3fe608060405234801561001057600080fd5b50600436106100625760003560e01c8063514fcac7146100675780638d0a5fbb14610083578063a85c38ef146100a1578063b64df840146100d7578063d09ef24114610107578063e050be5714610137575b600080fd5b610081600480360381019061007c91906106c7565b610167565b005b61008b6102e8565b6040516100989190610703565b60405180910390f35b6100bb60048036038101906100b691906106c7565b6102f4565b6040516100ce979695949392919061077a565b60405180910390f35b6100f160048036038101906100ec9190610815565b610380565b6040516100fe9190610703565b60405180910390f35b610121600480360381019061011c91906106c7565b610525565b60405161012e919061094b565b60405180910390f35b610151600480360381019061014c91906106c7565b610615565b60405161015e9190610966565b60405180910390f35b3373ffffffffffffffffffffffffffffffffffffffff166000828154811061019257610191610981565b5b906000526020600020906006020160000160009054906101000a900473ffffffffffffffffffffffffffffffffffffffff1673ffffffffffffffffffffffffffffffffffffffff161461021a576040517f08c379a000000000000000000000000000000000000000000000000000000000815260040161021190610a0d565b60405180910390fd5b6000818154811061022e5761022d610981565b5b906000526020600020906006020160050160019054906101000a900460ff161561028d576040517f08c379a000000000000000000000000000000000000000000000000000000000815260040161028490610a79565b60405180910390fd5b600180600083815260200190815260200160002060006101000a81548160ff021916908315150217905550807f61b9399f2f0f32ca39ce8d7be32caed5ec22fe07a6daba3a467ed479ec60658260405160405180910390a250565b60008080549050905090565b6000818154811061030457600080fd5b90600052602060002090600602016000915090508060000160009054906101000a900473ffffffffffffffffffffffffffffffffffffffff16908060010154908060020154908060030154908060040154908060050160009054906101000a900460ff16908060050160019054906101000a900460ff16905087565b6000806040518060e001604052803373ffffffffffffffffffffffffffffffffffffffff168152602001888152602001878152602001868152602001858152602001841515815260200160001515815250908060018154018082558091505060019003906000526020600020906006020160009091909190915060008201518160000160006101000a81548173ffffffffffffffffffffffffffffffffffffffff021916908373ffffffffffffffffffffffffffffffffffffffff1602179055506020820151816001015560408201518160020155606082015181600301556080820151816004015560a08201518160050160006101000a81548160ff02191690831515021790555060c08201518160050160016101000a81548160ff0219169083151502179055505050600060016000805490506104bf9190610ac8565b90503373ffffffffffffffffffffffffffffffffffffffff16817f1678176f2d05767888814923ea42c4bae72148dcc8b6d83fc87e767f9991792e8989898989604051610510959493929190610afc565b60405180910390a38091505095945050505050565b61052d610635565b6000828154811061054157610540610981565b5b90600052602060002090600602016040518060e00160405290816000820160009054906101000a900473ffffffffffffffffffffffffffffffffffffffff1673ffffffffffffffffffffffffffffffffffffffff1673ffffffffffffffffffffffffffffffffffffffff168152602001600182015481526020016002820154815260200160038201548152602001600482015481526020016005820160009054906101000a900460ff161515151581526020016005820160019054906101000a900460ff1615151515815250509050919050565b60016020528060005260406000206000915054906101000a900460ff1681565b6040518060e00160405280600073ffffffffffffffffffffffffffffffffffffffff168152602001600081526020016000815260200160008152602001600081526020016000151581526020016000151581525090565b600080fd5b6000819050919050565b6106a481610691565b81146106af57600080fd5b50565b6000813590506106c18161069b565b92915050565b6000602082840312156106dd576106dc61068c565b5b60006106eb848285016106b2565b91505092915050565b6106fd81610691565b82525050565b600060208201905061071860008301846106f4565b92915050565b600073ffffffffffffffffffffffffffffffffffffffff82169050919050565b60006107498261071e565b9050919050565b6107598161073e565b82525050565b60008115159050919050565b6107748161075f565b82525050565b600060e08201905061078f600083018a610750565b61079c60208301896106f4565b6107a960408301886106f4565b6107b660608301876106f4565b6107c360808301866106f4565b6107d060a083018561076b565b6107dd60c083018461076b565b98975050505050505050565b6107f28161075f565b81146107fd57600080fd5b50565b60008135905061080f816107e9565b92915050565b600080600080600060a086880312156108315761083061068c565b5b600061083f888289016106b2565b9550506020610850888289016106b2565b9450506040610861888289016106b2565b9350506060610872888289016106b2565b925050608061088388828901610800565b9150509295509295909350565b6108998161073e565b82525050565b6108a881610691565b82525050565b6108b78161075f565b82525050565b60e0820160008201516108d36000850182610890565b5060208201516108e6602085018261089f565b5060408201516108f9604085018261089f565b50606082015161090c606085018261089f565b50608082015161091f608085018261089f565b5060a082015161093260a08501826108ae565b5060c082015161094560c08501826108ae565b50505050565b600060e08201905061096060008301846108bd565b92915050565b600060208201905061097b600083018461076b565b92915050565b7f4e487b7100000000000000000000000000000000000000000000000000000000600052603260045260246000fd5b600082825260208201905092915050565b7f4e6f74206f72646572206d616b65720000000000000000000000000000000000600082015250565b60006109f7600f836109b0565b9150610a02826109c1565b602082019050919050565b60006020820190508181036000830152610a26816109ea565b9050919050565b7f4f7264657220616c72656164792066696c6c6564000000000000000000000000600082015250565b6000610a636014836109b0565b9150610a6e82610a2d565b602082019050919050565b60006020820190508181036000830152610a9281610a56565b9050919050565b7f4e487b7100000000000000000000000000000000000000000000000000000000600052601160045260246000fd5b6000610ad382610691565b9150610ade83610691565b9250828203905081811115610af657610af5610a99565b5b92915050565b600060a082019050610b1160008301886106f4565b610b1e60208301876106f4565b610b2b60408301866106f4565b610b3860608301856106f4565b610b45608083018461076b565b969550505050505056fea26469706673582212203a35ff8ee4690a22e3e95c5c8810a10f37a77c00f5e049057d17912db46548ab64736f6c63430008140033","opcodes":"PUSH1 0x80 PUSH1 0x40 MSTORE CALLVALUE DUP1 ISZERO PUSH2 0x10 JUMPI PUSH1 0x0 DUP1 REVERT JUMPDEST POP PUSH2 0xB85 DUP1 PUSH2 0x20 PUSH1 0x0 CODECOPY PUSH1 0x0 RETURN INVALID PUSH1 0x80 PUSH1 0x40 MSTORE CALLVALUE DUP1 ISZERO PUSH2 0x10 JUMPI PUSH1 0x0 DUP1 REVERT JUMPDEST POP PUSH1 0x4 CALLDATASIZE LT PUSH2 0x62 JUMPI PUSH1 0x0 CALLDATALOAD PUSH1 0xE0 SHR DUP1 PUSH4 0x514FCAC7 EQ PUSH2 0x67 JUMPI DUP1 PUSH4 0x8D0A5FBB EQ PUSH2 0x83 JUMPI DUP1 PUSH4 0xA85C38EF EQ PUSH2 0xA1 JUMPI DUP1 PUSH4 0xB64DF840 EQ PUSH2 0xD7 JUMPI DUP1 PUSH4 0xD09EF241 EQ PUSH2 0x107 JUMPI DUP1 PUSH4 0xE050BE57 EQ PUSH2 0x137 JUMPI JUMPDEST PUSH1 0x0 DUP1 REVERT JUMPDEST PUSH2 0x81 PUSH1 0x4 DUP1 CALLDATASIZE SUB DUP2 ADD SWAP1 PUSH2 0x7C SWAP2 SWAP1 PUSH2 0x6C7 JUMP JUMPDEST PUSH2 0x167 JUMP JUMPDEST STOP JUMPDEST PUSH2 0x8B PUSH2 0x2E8 JUMP JUMPDEST PUSH1 0x40 MLOAD PUSH2 0x98 SWAP2 SWAP1 PUSH2 0x703 JUMP JUMPDEST PUSH1 0x40 MLOAD DUP1 SWAP2 SUB SWAP1 RETURN JUMPDEST PUSH2 0xBB PUSH1 0x4 DUP1 CALLDATASIZE SUB DUP2 ADD SWAP1 PUSH2 0xB6 SWAP2 SWAP1 PUSH2 0x6C7 JUMP JUMPDEST PUSH2 0x2F4 JUMP JUMPDEST PUSH1 0x40 MLOAD PUSH2 0xCE SWAP8 SWAP7 SWAP6 SWAP5 SWAP4 SWAP3 SWAP2 SWAP1 PUSH2 0x77A JUMP JUMPDEST PUSH1 0x40 MLOAD DUP1 SWAP2 SUB SWAP1 RETURN JUMPDEST PUSH2 0xF1 PUSH1 0x4 DUP1 CALLDATASIZE SUB DUP2 ADD SWAP1 PUSH2 0xEC SWAP2 SWAP1 PUSH2 0x815 JUMP JUMPDEST PUSH2 0x380 JUMP JUMPDEST PUSH1 0x40 MLOAD PUSH2 0xFE SWAP2 SWAP1 PUSH2 0x703 JUMP JUMPDEST PUSH1 0x40 MLOAD DUP1 SWAP2 SUB SWAP1 RETURN JUMPDEST PUSH2 0x121 PUSH1 0x4 DUP1 CALLDATASIZE SUB DUP2 ADD SWAP1 PUSH2 0x11C SWAP2 SWAP1 PUSH2 0x6C7 JUMP JUMPDEST PUSH2 0x525 JUMP JUMPDEST PUSH1 0x40 MLOAD PUSH2 0x12E SWAP2 SWAP1 PUSH2 0x94B JUMP JUMPDEST PUSH1 0x40 MLOAD DUP1 SWAP2 SUB SWAP1 RETURN JUMPDEST PUSH2 0x151 PUSH1 0x4 DUP1 CALLDATASIZE SUB DUP2 ADD SWAP1 PUSH2 0x14C SWAP2 SWAP1 PUSH2 0x6C7 JUMP JUMPDEST PUSH2 0x615 JUMP JUMPDEST PUSH1 0x40 MLOAD PUSH2 0x15E SWAP2 SWAP1 PUSH2 0x966 JUMP JUMPDEST PUSH1 0x40 MLOAD DUP1 SWAP2 SUB SWAP1 RETURN JUMPDEST CALLER PUSH20 0xFFFFFFFFFFFFFFFFFFFFFFFFFFFFFFFFFFFFFFFF AND PUSH1 0x0 DUP3 DUP2 SLOAD DUP2 LT PUSH2 0x192 JUMPI PUSH2 0x191 PUSH2 0x981 JUMP JUMPDEST JUMPDEST SWAP1 PUSH1 0x0 MSTORE PUSH1 0x20 PUSH1 0x0 KECCAK256 SWAP1 PUSH1 0x6 MUL ADD PUSH1 0x0 ADD PUSH1 0x0 SWAP1 SLOAD SWAP1 PUSH2 0x100 EXP SWAP1 DIV PUSH20 0xFFFFFFFFFFFFFFFFFFFFFFFFFFFFFFFFFFFFFFFF AND PUSH20 0xFFFFFFFFFFFFFFFFFFFFFFFFFFFFFFFFFFFFFFFF AND EQ PUSH2 0x21A JUMPI PUSH1 0x40 MLOAD PUSH32 0x8C379A000000000000000000000000000000000000000000000000000000000 DUP2 MSTORE PUSH1 0x4 ADD PUSH2 0x211 SWAP1 PUSH2 0xA0D JUMP JUMPDEST PUSH1 0x40 MLOAD DUP1 SWAP2 SUB SWAP1 REVERT JUMPDEST PUSH1 0x0 DUP2 DUP2 SLOAD DUP2 LT PUSH2 0x22E JUMPI PUSH2 0x22D PUSH2 0x981 JUMP JUMPDEST JUMPDEST SWAP1 PUSH1 0x0 MSTORE PUSH1 0x20 PUSH1 0x0 KECCAK256 SWAP1 PUSH1 0x6 MUL ADD PUSH1 0x5 ADD PUSH1 0x1 SWAP1 SLOAD SWAP1 PUSH2 0x100 EXP SWAP1 DIV PUSH1 0xFF AND ISZERO PUSH2 0x28D JUMPI PUSH1 0x40 MLOAD PUSH32 0x8C379A000000000000000000000000000000000000000000000000000000000 DUP2 MSTORE PUSH1 0x4 ADD PUSH2 0x284 SWAP1 PUSH2 0xA79 JUMP JUMPDEST PUSH1 0x40 MLOAD DUP1 SWAP2 SUB SWAP1 REVERT JUMPDEST PUSH1 0x1 DUP1 PUSH1 0x0 DUP4 DUP2 MSTORE PUSH1 0x20 ADD SWAP1 DUP2 MSTORE PUSH1 0x20 ADD PUSH1 0x0 KECCAK256 PUSH1 0x0 PUSH2 0x100 EXP DUP2 SLOAD DUP2 PUSH1 0xFF MUL NOT AND SWAP1 DUP4 ISZERO ISZERO MUL OR SWAP1 SSTORE POP DUP1 PUSH32 0x61B9399F2F0F32CA39CE8D7BE32CAED5EC22FE07A6DABA3A467ED479EC606582 PUSH1 0x40 MLOAD PUSH1 0x40 MLOAD DUP1 SWAP2 SUB SWAP1 LOG2 POP JUMP JUMPDEST PUSH1 0x0 DUP1 DUP1 SLOAD SWAP1 POP SWAP1 POP SWAP1 JUMP JUMPDEST PUSH1 0x0 DUP2 DUP2 SLOAD DUP2 LT PUSH2 0x304 JUMPI PUSH1 0x0 DUP1 REVERT JUMPDEST SWAP1 PUSH1 0x0 MSTORE PUSH1 0x20 PUSH1 0x0 KECCAK256 SWAP1 PUSH1 0x6 MUL ADD PUSH1 0x0 SWAP2 POP SWAP1 POP DUP1 PUSH1 0x0 ADD PUSH1 0x0 SWAP1 SLOAD SWAP1 PUSH2 0x100 EXP SWAP1 DIV PUSH20 0xFFFFFFFFFFFFFFFFFFFFFFFFFFFFFFFFFFFFFFFF AND SWAP1 DUP1 PUSH1 0x1 ADD SLOAD SWAP1 DUP1 PUSH1 0x2 ADD SLOAD SWAP1 DUP1 PUSH1 0x3 ADD SLOAD SWAP1 DUP1 PUSH1 0x4 ADD SLOAD SWAP1 DUP1 PUSH1 0x5 ADD PUSH1 0x0 SWAP1 SLOAD SWAP1 PUSH2 0x100 EXP SWAP1 DIV PUSH1 0xFF AND SWAP1 DUP1 PUSH1 0x5 ADD PUSH1 0x1 SWAP1 SLOAD SWAP1 PUSH2 0x100 EXP SWAP1 DIV PUSH1 0xFF AND SWAP1 POP DUP8 JUMP JUMPDEST PUSH1 0x0 DUP1 PUSH1 0x40 MLOAD DUP1 PUSH1 0xE0 ADD PUSH1 0x40 MSTORE DUP1 CALLER PUSH20 0xFFFFFFFFFFFFFFFFFFFFFFFFFFFFFFFFFFFFFFFF AND DUP2 MSTORE PUSH1 0x20 ADD DUP9 DUP2 MSTORE PUSH1 0x20 ADD DUP8 DUP2 MSTORE PUSH1 0x20 ADD DUP7 DUP2 MSTORE PUSH1 0x20 ADD DUP6 DUP2 MSTORE PUSH1 0x20 ADD DUP5 ISZERO ISZERO DUP2 MSTORE PUSH1 0x20 ADD PUSH1 0x0 ISZERO ISZERO DUP2 MSTORE POP SWAP1 DUP1 PUSH1 0x1 DUP2 SLOAD ADD DUP1 DUP3 SSTORE DUP1 SWAP2 POP POP PUSH1 0x1 SWAP1 SUB SWAP1 PUSH1 0x0 MSTORE PUSH1 0x20 PUSH1 0x0 KECCAK256 SWAP1 PUSH1 0x6 MUL ADD PUSH1 0x0 SWAP1 SWAP2 SWAP1 SWAP2 SWAP1 SWAP2 POP PUSH1 0x0 DUP3 ADD MLOAD DUP2 PUSH1 0x0 ADD PUSH1 0x0 PUSH2 0x100 EXP DUP2 SLOAD DUP2 PUSH20 0xFFFFFFFFFFFFFFFFFFFFFFFFFFFFFFFFFFFFFFFF MUL NOT AND SWAP1 DUP4 PUSH20 0xFFFFFFFFFFFFFFFFFFFFFFFFFFFFFFFFFFFFFFFF AND MUL OR SWAP1 SSTORE POP PUSH1 0x20 DUP3 ADD MLOAD DUP2 PUSH1 0x1 ADD SSTORE PUSH1 0x40 DUP3 ADD MLOAD DUP2 PUSH1 0x2 ADD SSTORE PUSH1 0x60 DUP3 ADD MLOAD DUP2 PUSH1 0x3 ADD SSTORE PUSH1 0x80 DUP3 ADD MLOAD DUP2 PUSH1 0x4 ADD SSTORE PUSH1 0xA0 DUP3 ADD MLOAD DUP2 PUSH1 0x5 ADD PUSH1 0x0 PUSH2 0x100 EXP DUP2 SLOAD DUP2 PUSH1 0xFF MUL NOT AND SWAP1 DUP4 ISZERO ISZERO MUL OR SWAP1 SSTORE POP PUSH1 0xC0 DUP3 ADD MLOAD DUP2 PUSH1 0x5 ADD PUSH1 0x1 PUSH2 0x100 EXP DUP2 SLOAD DUP2 PUSH1 0xFF MUL NOT AND SWAP1 DUP4 ISZERO ISZERO MUL OR SWAP1 SSTORE POP POP POP PUSH1 0x0 PUSH1 0x1 PUSH1 0x0 DUP1 SLOAD SWAP1 POP PUSH2 0x4BF SWAP2 SWAP1 PUSH2 0xAC8 JUMP JUMPDEST SWAP1 POP CALLER PUSH20 0xFFFFFFFFFFFFFFFFFFFFFFFFFFFFFFFFFFFFFFFF AND DUP2 PUSH32 0x1678176F2D05767888814923EA42C4BAE72148DCC8B6D83FC87E767F9991792E DUP10 DUP10 DUP10 DUP10 DUP10 PUSH1 0x40 MLOAD PUSH2 0x510 SWAP6 SWAP5 SWAP4 SWAP3 SWAP2 SWAP1 PUSH2 0xAFC JUMP JUMPDEST PUSH1 0x40 MLOAD DUP1 SWAP2 SUB SWAP1 LOG3 DUP1 SWAP2 POP POP SWAP6 SWAP5 POP POP POP POP POP JUMP JUMPDEST PUSH2 0x52D PUSH2 0x635 JUMP JUMPDEST PUSH1 0x0 DUP3 DUP2 SLOAD DUP2 LT PUSH2 0x541 JUMPI PUSH2 0x540 PUSH2 0x981 JUMP JUMPDEST JUMPDEST SWAP1 PUSH1 0x0 MSTORE PUSH1 0x20 PUSH1 0x0 KECCAK256 SWAP1 PUSH1 0x6 MUL ADD PUSH1 0x40 MLOAD DUP1 PUSH1 0xE0 ADD PUSH1 0x40 MSTORE SWAP1 DUP2 PUSH1 0x0 DUP3 ADD PUSH1 0x0 SWAP1 SLOAD SWAP1 PUSH2 0x100 EXP SWAP1 DIV PUSH20 0xFFFFFFFFFFFFFFFFFFFFFFFFFFFFFFFFFFFFFFFF AND PUSH20 0xFFFFFFFFFFFFFFFFFFFFFFFFFFFFFFFFFFFFFFFF AND PUSH20 0xFFFFFFFFFFFFFFFFFFFFFFFFFFFFFFFFFFFFFFFF AND DUP2 MSTORE PUSH1 0x20 ADD PUSH1 0x1 DUP3 ADD SLOAD DUP2 MSTORE PUSH1 0x20 ADD PUSH1 0x2 DUP3 ADD SLOAD DUP2 MSTORE PUSH1 0x20 ADD PUSH1 0x3 DUP3 ADD SLOAD DUP2 MSTORE PUSH1 0x20 ADD PUSH1 0x4 DUP3 ADD SLOAD DUP2 MSTORE PUSH1 0x20 ADD PUSH1 0x5 DUP3 ADD PUSH1 0x0 SWAP1 SLOAD SWAP1 PUSH2 0x100 EXP SWAP1 DIV PUSH1 0xFF AND ISZERO ISZERO ISZERO ISZERO DUP2 MSTORE PUSH1 0x20 ADD PUSH1 0x5 DUP3 ADD PUSH1 0x1 SWAP1 SLOAD SWAP1 PUSH2 0x100 EXP SWAP1 DIV PUSH1 0xFF AND ISZERO ISZERO ISZERO ISZERO DUP2 MSTORE POP POP SWAP1 POP SWAP2 SWAP1 POP JUMP JUMPDEST PUSH1 0x1 PUSH1 0x20 MSTORE DUP1 PUSH1 0x0 MSTORE PUSH1 0x40 PUSH1 0x0 KECCAK256 PUSH1 0x0 SWAP2 POP SLOAD SWAP1 PUSH2 0x100 EXP SWAP1 DIV PUSH1 0xFF AND DUP2 JUMP JUMPDEST PUSH1 0x40 MLOAD DUP1 PUSH1 0xE0 ADD PUSH1 0x40 MSTORE DUP1 PUSH1 0x0 PUSH20 0xFFFFFFFFFFFFFFFFFFFFFFFFFFFFFFFFFFFFFFFF AND DUP2 MSTORE PUSH1 0x20 ADD PUSH1 0x0 DUP2 MSTORE PUSH1 0x20 ADD PUSH1 0x0 DUP2 MSTORE PUSH1 0x20 ADD PUSH1 0x0 DUP2 MSTORE PUSH1 0x20 ADD PUSH1 0x0 DUP2 MSTORE PUSH1 0x20 ADD PUSH1 0x0 ISZERO ISZERO DUP2 MSTORE PUSH1 0x20 ADD PUSH1 0x0 ISZERO ISZERO DUP2 MSTORE POP SWAP1 JUMP JUMPDEST PUSH1 0x0 DUP1 REVERT JUMPDEST PUSH1 0x0 DUP2 SWAP1 POP SWAP2 SWAP1 POP JUMP JUMPDEST PUSH2 0x6A4 DUP2 PUSH2 0x691 JUMP JUMPDEST DUP2 EQ PUSH2 0x6AF JUMPI PUSH1 0x0 DUP1 REVERT JUMPDEST POP JUMP JUMPDEST PUSH1 0x0 DUP2 CALLDATALOAD SWAP1 POP PUSH2 0x6C1 DUP2 PUSH2 0x69B JUMP JUMPDEST SWAP3 SWAP2 POP POP JUMP JUMPDEST PUSH1 0x0 PUSH1 0x20 DUP3 DUP5 SUB SLT ISZERO PUSH2 0x6DD JUMPI PUSH2 0x6DC PUSH2 0x68C JUMP JUMPDEST JUMPDEST PUSH1 0x0 PUSH2 0x6EB DUP5 DUP3 DUP6 ADD PUSH2 0x6B2 JUMP JUMPDEST SWAP2 POP POP SWAP3 SWAP2 POP POP JUMP JUMPDEST PUSH2 0x6FD DUP2 PUSH2 0x691 JUMP JUMPDEST DUP3 MSTORE POP POP JUMP JUMPDEST PUSH1 0x0 PUSH1 0x20 DUP3 ADD SWAP1 POP PUSH2 0x718 PUSH1 0x0 DUP4 ADD DUP5 PUSH2 0x6F4 JUMP JUMPDEST SWAP3 SWAP2 POP POP JUMP JUMPDEST PUSH1 0x0 PUSH20 0xFFFFFFFFFFFFFFFFFFFFFFFFFFFFFFFFFFFFFFFF DUP3 AND SWAP1 POP SWAP2 SWAP1 POP JUMP JUMPDEST PUSH1 0x0 PUSH2 0x749 DUP3 PUSH2 0x71E JUMP JUMPDEST SWAP1 POP SWAP2 SWAP1 POP JUMP JUMPDEST PUSH2 0x759 DUP2 PUSH2 0x73E JUMP JUMPDEST DUP3 MSTORE POP POP JUMP JUMPDEST PUSH1 0x0 DUP2 ISZERO ISZERO SWAP1 POP SWAP2 SWAP1 POP JUMP JUMPDEST PUSH2 0x774 DUP2 PUSH2 0x75F JUMP JUMPDEST DUP3 MSTORE POP POP JUMP JUMPDEST PUSH1 0x0 PUSH1 0xE0 DUP3 ADD SWAP1 POP PUSH2 0x78F PUSH1 0x0 DUP4 ADD DUP11 PUSH2 0x750 JUMP JUMPDEST PUSH2 0x79C PUSH1 0x20 DUP4 ADD DUP10 PUSH2 0x6F4 JUMP JUMPDEST PUSH2 0x7A9 PUSH1 0x40 DUP4 ADD DUP9 PUSH2 0x6F4 JUMP JUMPDEST PUSH2 0x7B6 PUSH1 0x60 DUP4 ADD DUP8 PUSH2 0x6F4 JUMP JUMPDEST PUSH2 0x7C3 PUSH1 0x80 DUP4 ADD DUP7 PUSH2 0x6F4 JUMP JUMPDEST PUSH2 0x7D0 PUSH1 0xA0 DUP4 ADD DUP6 PUSH2 0x76B JUMP JUMPDEST PUSH2 0x7DD PUSH1 0xC0 DUP4 ADD DUP5 PUSH2 0x76B JUMP JUMPDEST SWAP9 SWAP8 POP POP POP POP POP POP POP POP JUMP JUMPDEST PUSH2 0x7F2 DUP2 PUSH2 0x75F JUMP JUMPDEST DUP2 EQ PUSH2 0x7FD JUMPI PUSH1 0x0 DUP1 REVERT JUMPDEST POP JUMP JUMPDEST PUSH1 0x0 DUP2 CALLDATALOAD SWAP1 POP PUSH2 0x80F DUP2 PUSH2 0x7E9 JUMP JUMPDEST SWAP3 SWAP2 POP POP JUMP JUMPDEST PUSH1 0x0 DUP1 PUSH1 0x0 DUP1 PUSH1 0x0 PUSH1 0xA0 DUP7 DUP9 SUB SLT ISZERO PUSH2 0x831 JUMPI PUSH2 0x830 PUSH2 0x68C JUMP JUMPDEST JUMPDEST PUSH1 0x0 PUSH2 0x83F DUP9 DUP3 DUP10 ADD PUSH2 0x6B2 JUMP JUMPDEST SWAP6 POP POP PUSH1 0x20 PUSH2 0x850 DUP9 DUP3 DUP10 ADD PUSH2 0x6B2 JUMP JUMPDEST SWAP5 POP POP PUSH1 0x40 PUSH2 0x861 DUP9 DUP3 DUP10 ADD PUSH2 0x6B2 JUMP JUMPDEST SWAP4 POP POP PUSH1 0x60 PUSH2 0x872 DUP9 DUP3 DUP10 ADD PUSH2 0x6B2 JUMP JUMPDEST SWAP3 POP POP PUSH1 0x80 PUSH2 0x883 DUP9 DUP3 DUP10 ADD PUSH2 0x800 JUMP JUMPDEST SWAP2 POP POP SWAP3 SWAP6 POP SWAP3 SWAP6 SWAP1 SWAP4 POP JUMP JUMPDEST PUSH2 0x899 DUP2 PUSH2 0x73E JUMP JUMPDEST DUP3 MSTORE POP POP JUMP JUMPDEST PUSH2 0x8A8 DUP2 PUSH2 0x691 JUMP JUMPDEST DUP3 MSTORE POP POP JUMP JUMPDEST PUSH2 0x8B7 DUP2 PUSH2 0x75F JUMP JUMPDEST DUP3 MSTORE POP POP JUMP JUMPDEST PUSH1 0xE0 DUP3 ADD PUSH1 0x0 DUP3 ADD MLOAD PUSH2 0x8D3 PUSH1 0x0 DUP6 ADD DUP3 PUSH2 0x890 JUMP JUMPDEST POP PUSH1 0x20 DUP3 ADD MLOAD PUSH2 0x8E6 PUSH1 0x20 DUP6 ADD DUP3 PUSH2 0x89F JUMP JUMPDEST POP PUSH1 0x40 DUP3 ADD MLOAD PUSH2 0x8F9 PUSH1 0x40 DUP6 ADD DUP3 PUSH2 0x89F JUMP JUMPDEST POP PUSH1 0x60 DUP3 ADD MLOAD PUSH2 0x90C PUSH1 0x60 DUP6 ADD DUP3 PUSH2 0x89F JUMP JUMPDEST POP PUSH1 0x80 DUP3 ADD MLOAD PUSH2 0x91F PUSH1 0x80 DUP6 ADD DUP3 PUSH2 0x89F JUMP JUMPDEST POP PUSH1 0xA0 DUP3 ADD MLOAD PUSH2 0x932 PUSH1 0xA0 DUP6 ADD DUP3 PUSH2 0x8AE JUMP JUMPDEST POP PUSH1 0xC0 DUP3 ADD MLOAD PUSH2 0x945 PUSH1 0xC0 DUP6 ADD DUP3 PUSH2 0x8AE JUMP JUMPDEST POP POP POP POP JUMP JUMPDEST PUSH1 0x0 PUSH1 0xE0 DUP3 ADD SWAP1 POP PUSH2 0x960 PUSH1 0x0 DUP4 ADD DUP5 PUSH2 0x8BD JUMP JUMPDEST SWAP3 SWAP2 POP POP JUMP JUMPDEST PUSH1 0x0 PUSH1 0x20 DUP3 ADD SWAP1 POP PUSH2 0x97B PUSH1 0x0 DUP4 ADD DUP5 PUSH2 0x76B JUMP JUMPDEST SWAP3 SWAP2 POP POP JUMP JUMPDEST PUSH32 0x4E487B7100000000000000000000000000000000000000000000000000000000 PUSH1 0x0 MSTORE PUSH1 0x32 PUSH1 0x4 MSTORE PUSH1 0x24 PUSH1 0x0 REVERT JUMPDEST PUSH1 0x0 DUP3 DUP3 MSTORE PUSH1 0x20 DUP3 ADD SWAP1 POP SWAP3 SWAP2 POP POP JUMP JUMPDEST PUSH32 0x4E6F74206F72646572206D616B65720000000000000000000000000000000000 PUSH1 0x0 DUP3 ADD MSTORE POP JUMP JUMPDEST PUSH1 0x0 PUSH2 0x9F7 PUSH1 0xF DUP4 PUSH2 0x9B0 JUMP JUMPDEST SWAP2 POP PUSH2 0xA02 DUP3 PUSH2 0x9C1 JUMP JUMPDEST PUSH1 0x20 DUP3 ADD SWAP1 POP SWAP2 SWAP1 POP JUMP JUMPDEST PUSH1 0x0 PUSH1 0x20 DUP3 ADD SWAP1 POP DUP2 DUP2 SUB PUSH1 0x0 DUP4 ADD MSTORE PUSH2 0xA26 DUP2 PUSH2 0x9EA JUMP JUMPDEST SWAP1 POP SWAP2 SWAP1 POP JUMP JUMPDEST PUSH32 0x4F7264657220616C72656164792066696C6C6564000000000000000000000000 PUSH1 0x0 DUP3 ADD MSTORE POP JUMP JUMPDEST PUSH1 0x0 PUSH2 0xA63 PUSH1 0x14 DUP4 PUSH2 0x9B0 JUMP JUMPDEST SWAP2 POP PUSH2 0xA6E DUP3 PUSH2 0xA2D JUMP JUMPDEST PUSH1 0x20 DUP3 ADD SWAP1 POP SWAP2 SWAP1 POP JUMP JUMPDEST PUSH1 0x0 PUSH1 0x20 DUP3 ADD SWAP1 POP DUP2 DUP2 SUB PUSH1 0x0 DUP4 ADD MSTORE PUSH2 0xA92 DUP2 PUSH2 0xA56 JUMP JUMPDEST SWAP1 POP SWAP2 SWAP1 POP JUMP JUMPDEST PUSH32 0x4E487B7100000000000000000000000000000000000000000000000000000000 PUSH1 0x0 MSTORE PUSH1 0x11 PUSH1 0x4 MSTORE PUSH1 0x24 PUSH1 0x0 REVERT JUMPDEST PUSH1 0x0 PUSH2 0xAD3 DUP3 PUSH2 0x691 JUMP JUMPDEST SWAP2 POP PUSH2 0xADE DUP4 PUSH2 0x691 JUMP JUMPDEST SWAP3 POP DUP3 DUP3 SUB SWAP1 POP DUP2 DUP2 GT ISZERO PUSH2 0xAF6 JUMPI PUSH2 0xAF5 PUSH2 0xA99 JUMP JUMPDEST JUMPDEST SWAP3 SWAP2 POP POP JUMP JUMPDEST PUSH1 0x0 PUSH1 0xA0 DUP3 ADD SWAP1 POP PUSH2 0xB11 PUSH1 0x0 DUP4 ADD DUP9 PUSH2 0x6F4 JUMP JUMPDEST PUSH2 0xB1E PUSH1 0x20 DUP4 ADD DUP8 PUSH2 0x6F4 JUMP JUMPDEST PUSH2 0xB2B PUSH1 0x40 DUP4 ADD DUP7 PUSH2 0x6F4 JUMP JUMPDEST PUSH2 0xB38 PUSH1 0x60 DUP4 ADD DUP6 PUSH2 0x6F4 JUMP JUMPDEST PUSH2 0xB45 PUSH1 0x80 DUP4 ADD DUP5 PUSH2 0x76B JUMP JUMPDEST SWAP7 SWAP6 POP POP POP POP POP POP JUMP INVALID LOG2 PUSH5 0x6970667358 0x22 SLT KECCAK256 GASPRICE CALLDATALOAD SELFDESTRUCT DUP15 0xE4 PUSH10 0xA22E3E95C5C8810A10F CALLDATACOPY 0xA7 PUSH29 0xF5E049057D17912DB46548AB64736F6C634300081400330000000000 "},"methodIdentifiers":{"cancelOrder(uint256)":"514fcac7","cancelled(uint256)":"e050be57","getOrder(uint256)":"d09ef241","getOrderCount()":"8d0a5fbb","orders(uint256)":"a85c38ef","placeOrder(uint256,uint256,uint256,uint256,bool)":"b64df840"}}}}}