{"contracts/MultiOutcomeMarket.sol":{"MultiOutcomeMarket":{"abi":[{"inputs":[{"internalType":"address","name":"_conditionalTokens","type":"address"}],"stateMutability":"nonpayable","type":"constructor"},{"anonymous":false,"inputs":[{"indexed":true,"internalType":"bytes32","name":"marketId","type":"bytes32"},{"indexed":false,"internalType":"string","name":"question","type":"string"},{"indexed":false,"internalType":"enum MultiOutcomeMarket.MarketType","name":"marketType","type":"uint8"},{"indexed":false,"internalType":"uint256","name":"outcomeCount","type":"uint256"}],"name":"MarketCreated","type":"event"},{"anonymous":false,"inputs":[{"indexed":true,"internalType":"bytes32","name":"marketId","type":"bytes32"},{"indexed":false,"internalType":"uint256","name":"winningOutcome","type":"uint256"}],"name":"MarketResolved","type":"event"},{"inputs":[],"name":"conditionalTokens","outputs":[{"internalType":"contract ConditionalTokens","name":"","type":"address"}],"stateMutability":"view","type":"function"},{"inputs":[{"internalType":"string","name":"question","type":"string"},{"internalType":"string[]","name":"outcomes","type":"string[]"},{"internalType":"uint256","name":"endTime","type":"uint256"},{"internalType":"address","name":"oracle","type":"address"}],"name":"createCategoricalMarket","outputs":[{"internalType":"bytes32","name":"marketId","type":"bytes32"}],"stateMutability":"nonpayable","type":"function"},{"inputs":[{"internalType":"string","name":"question","type":"string"},{"internalType":"uint256","name":"minValue","type":"uint256"},{"internalType":"uint256","name":"maxValue","type":"uint256"},{"internalType":"uint256","name":"endTime","type":"uint256"},{"internalType":"address","name":"oracle","type":"address"}],"name":"createScalarMarket","outputs":[{"internalType":"bytes32","name":"marketId","type":"bytes32"}],"stateMutability":"nonpayable","type":"function"},{"inputs":[{"internalType":"bytes32","name":"","type":"bytes32"}],"name":"markets","outputs":[{"internalType":"string","name":"question","type":"string"},{"internalType":"uint256","name":"endTime","type":"uint256"},{"internalType":"address","name":"oracle","type":"address"},{"internalType":"bool","name":"resolved","type":"bool"},{"internalType":"uint256","name":"winningOutcome","type":"uint256"},{"internalType":"enum MultiOutcomeMarket.MarketType","name":"marketType","type":"uint8"}],"stateMutability":"view","type":"function"},{"inputs":[{"internalType":"bytes32","name":"","type":"bytes32"},{"internalType":"uint256","name":"","type":"uint256"}],"name":"outcomePrices","outputs":[{"internalType":"uint256","name":"","type":"uint256"}],"stateMutability":"view","type":"function"},{"inputs":[{"internalType":"bytes32","name":"marketId","type":"bytes32"},{"internalType":"uint256","name":"winningOutcome","type":"uint256"}],"name":"resolveMarket","outputs":[],"stateMutability":"nonpayable","type":"function"}],"evm":{"bytecode":{"linkReferences":{},"object":"60806040523480156200001157600080fd5b5060405162001e4838038062001e488339818101604052810190620000379190620000e9565b80600260006101000a81548173ffffffffffffffffffffffffffffffffffffffff021916908373ffffffffffffffffffffffffffffffffffffffff160217905550506200011b565b600080fd5b600073ffffffffffffffffffffffffffffffffffffffff82169050919050565b6000620000b18262000084565b9050919050565b620000c381620000a4565b8114620000cf57600080fd5b50565b600081519050620000e381620000b8565b92915050565b6000602082840312156200010257620001016200007f565b5b60006200011284828501620000d2565b91505092915050565b611d1d806200012b6000396000f3fe608060405234801561001057600080fd5b50600436106100625760003560e01c80630fe5f3be14610067578063590f4cb3146100975780635bd9e299146100b3578063644ff8a0146100d15780637564912b1461010157806387ffafd114610136575b600080fd5b610081600480360381019061007c9190610c90565b610166565b60405161008e9190610cdf565b60405180910390f35b6100b160048036038101906100ac9190610c90565b61018b565b005b6100bb610331565b6040516100c89190610d79565b60405180910390f35b6100eb60048036038101906100e69190610e37565b610357565b6040516100f89190610ee0565b60405180910390f35b61011b60048036038101906101169190610efb565b610649565b60405161012d96959493929190611059565b60405180910390f35b610150600480360381019061014b9190611117565b610747565b60405161015d9190610ee0565b60405180910390f35b6001602052816000526040600020602052806000526040600020600091509150505481565b600080600084815260200190815260200160002090508060030160009054906101000a900473ffffffffffffffffffffffffffffffffffffffff1673ffffffffffffffffffffffffffffffffffffffff163373ffffffffffffffffffffffffffffffffffffffff1614610233576040517f08c379a000000000000000000000000000000000000000000000000000000000815260040161022a9061120a565b60405180910390fd5b8060030160149054906101000a900460ff1615610285576040517f08c379a000000000000000000000000000000000000000000000000000000000815260040161027c90611276565b60405180910390fd5b806001018054905082106102ce576040517f08c379a00000000000000000000000000000000000000000000000000000000081526004016102c5906112e2565b60405180910390fd5b60018160030160146101000a81548160ff021916908315150217905550818160040181905550827fad240fac7c25c6e791819f11e8d7d57c999d23289ef3ad025790f3249b23e865836040516103249190610cdf565b60405180910390a2505050565b600260009054906101000a900473ffffffffffffffffffffffffffffffffffffffff1681565b60008686423360405160200161037094939291906113aa565b6040516020818303038152906040528051906020012090506000600267ffffffffffffffff8111156103a5576103a46113e5565b5b6040519080825280602002602001820160405280156103d857816020015b60608152602001906001900390816103c35790505b5090506103e4866109ae565b6040516020016103f49190611491565b60405160208183030381529060405281600081518110610417576104166114b3565b5b602002602001018190525061042b856109ae565b60405160200161043b919061152e565b6040516020818303038152906040528160018151811061045e5761045d6114b3565b5b60200260200101819052506040518060e0016040528089898080601f016020809104026020016040519081016040528093929190818152602001838380828437600081840152601f19601f8201169050808301925050505050505081526020018281526020018581526020018473ffffffffffffffffffffffffffffffffffffffff1681526020016000151581526020016000815260200160028081111561050957610508610fe2565b5b81525060008084815260200190815260200160002060008201518160000190816105339190611752565b506020820151816001019080519060200190610550929190610b36565b506040820151816002015560608201518160030160006101000a81548173ffffffffffffffffffffffffffffffffffffffff021916908373ffffffffffffffffffffffffffffffffffffffff16021790555060808201518160030160146101000a81548160ff02191690831515021790555060a0820151816004015560c08201518160050160006101000a81548160ff021916908360028111156105f7576105f6610fe2565b5b0217905550905050817f8e05d5a91315cffc0eb2b6c6fa7585169bc6b6337365321011ee73b414f7e7a28989600280604051610636949392919061188c565b60405180910390a2509695505050505050565b600060205280600052604060002060009150905080600001805461066c9061157f565b80601f01602080910402602001604051908101604052809291908181526020018280546106989061157f565b80156106e55780601f106106ba576101008083540402835291602001916106e5565b820191906000526020600020905b8154815290600101906020018083116106c857829003601f168201915b5050505050908060020154908060030160009054906101000a900473ffffffffffffffffffffffffffffffffffffffff16908060030160149054906101000a900460ff16908060040154908060050160009054906101000a900460ff16905086565b60006003858590501015610790576040517f08c379a00000000000000000000000000000000000000000000000000000000081526004016107879061193e565b60405180910390fd5b868642336040516020016107a794939291906113aa565b6040516020818303038152906040528051906020012090506040518060e0016040528088888080601f016020809104026020016040519081016040528093929190818152602001838380828437600081840152601f19601f8201169050808301925050505050505081526020018686906108219190611b03565b81526020018481526020018373ffffffffffffffffffffffffffffffffffffffff168152602001600015158152602001600081526020016001600281111561086c5761086b610fe2565b5b81525060008083815260200190815260200160002060008201518160000190816108969190611752565b5060208201518160010190805190602001906108b3929190610b36565b506040820151816002015560608201518160030160006101000a81548173ffffffffffffffffffffffffffffffffffffffff021916908373ffffffffffffffffffffffffffffffffffffffff16021790555060808201518160030160146101000a81548160ff02191690831515021790555060a0820151816004015560c08201518160050160006101000a81548160ff0219169083600281111561095a57610959610fe2565b5b0217905550905050807f8e05d5a91315cffc0eb2b6c6fa7585169bc6b6337365321011ee73b414f7e7a2888860018989905060405161099c9493929190611b18565b60405180910390a29695505050505050565b6060600082036109f5576040518060400160405280600181526020017f30000000000000000000000000000000000000000000000000000000000000008152509050610b31565b600082905060005b60008214610a27578080610a1090611b87565b915050600a82610a209190611bfe565b91506109fd565b60008167ffffffffffffffff811115610a4357610a426113e5565b5b6040519080825280601f01601f191660200182016040528015610a755781602001600182028036833780820191505090505b50905060008290505b60008614610b2957600181610a939190611c2f565b90506000600a8088610aa59190611bfe565b610aaf9190611c63565b87610aba9190611c2f565b6030610ac69190611cb2565b905060008160f81b905080848481518110610ae457610ae36114b3565b5b60200101907effffffffffffffffffffffffffffffffffffffffffffffffffffffffffffff1916908160001a905350600a88610b209190611bfe565b97505050610a7e565b819450505050505b919050565b828054828255906000526020600020908101928215610b7e579160200282015b82811115610b7d578251829081610b6d9190611752565b5091602001919060010190610b56565b5b509050610b8b9190610b8f565b5090565b5b80821115610baf5760008181610ba69190610bb3565b50600101610b90565b5090565b508054610bbf9061157f565b6000825580601f10610bd15750610bf0565b601f016020900490600052602060002090810190610bef9190610bf3565b5b50565b5b80821115610c0c576000816000905550600101610bf4565b5090565b6000604051905090565b600080fd5b600080fd5b6000819050919050565b610c3781610c24565b8114610c4257600080fd5b50565b600081359050610c5481610c2e565b92915050565b6000819050919050565b610c6d81610c5a565b8114610c7857600080fd5b50565b600081359050610c8a81610c64565b92915050565b60008060408385031215610ca757610ca6610c1a565b5b6000610cb585828601610c45565b9250506020610cc685828601610c7b565b9150509250929050565b610cd981610c5a565b82525050565b6000602082019050610cf46000830184610cd0565b92915050565b600073ffffffffffffffffffffffffffffffffffffffff82169050919050565b6000819050919050565b6000610d3f610d3a610d3584610cfa565b610d1a565b610cfa565b9050919050565b6000610d5182610d24565b9050919050565b6000610d6382610d46565b9050919050565b610d7381610d58565b82525050565b6000602082019050610d8e6000830184610d6a565b92915050565b600080fd5b600080fd5b600080fd5b60008083601f840112610db957610db8610d94565b5b8235905067ffffffffffffffff811115610dd657610dd5610d99565b5b602083019150836001820283011115610df257610df1610d9e565b5b9250929050565b6000610e0482610cfa565b9050919050565b610e1481610df9565b8114610e1f57600080fd5b50565b600081359050610e3181610e0b565b92915050565b60008060008060008060a08789031215610e5457610e53610c1a565b5b600087013567ffffffffffffffff811115610e7257610e71610c1f565b5b610e7e89828a01610da3565b96509650506020610e9189828a01610c7b565b9450506040610ea289828a01610c7b565b9350506060610eb389828a01610c7b565b9250506080610ec489828a01610e22565b9150509295509295509295565b610eda81610c24565b82525050565b6000602082019050610ef56000830184610ed1565b92915050565b600060208284031215610f1157610f10610c1a565b5b6000610f1f84828501610c45565b91505092915050565b600081519050919050565b600082825260208201905092915050565b60005b83811015610f62578082015181840152602081019050610f47565b60008484015250505050565b6000601f19601f8301169050919050565b6000610f8a82610f28565b610f948185610f33565b9350610fa4818560208601610f44565b610fad81610f6e565b840191505092915050565b610fc181610df9565b82525050565b60008115159050919050565b610fdc81610fc7565b82525050565b7f4e487b7100000000000000000000000000000000000000000000000000000000600052602160045260246000fd5b6003811061102257611021610fe2565b5b50565b600081905061103382611011565b919050565b600061104382611025565b9050919050565b61105381611038565b82525050565b600060c08201905081810360008301526110738189610f7f565b90506110826020830188610cd0565b61108f6040830187610fb8565b61109c6060830186610fd3565b6110a96080830185610cd0565b6110b660a083018461104a565b979650505050505050565b60008083601f8401126110d7576110d6610d94565b5b8235905067ffffffffffffffff8111156110f4576110f3610d99565b5b6020830191508360208202830111156111105761110f610d9e565b5b9250929050565b6000806000806000806080878903121561113457611133610c1a565b5b600087013567ffffffffffffffff81111561115257611151610c1f565b5b61115e89828a01610da3565b9650965050602087013567ffffffffffffffff81111561118157611180610c1f565b5b61118d89828a016110c1565b945094505060406111a089828a01610c7b565b92505060606111b189828a01610e22565b9150509295509295509295565b7f4f6e6c79206f7261636c652063616e207265736f6c7665000000000000000000600082015250565b60006111f4601783610f33565b91506111ff826111be565b602082019050919050565b60006020820190508181036000830152611223816111e7565b9050919050565b7f416c7265616479207265736f6c76656400000000000000000000000000000000600082015250565b6000611260601083610f33565b915061126b8261122a565b602082019050919050565b6000602082019050818103600083015261128f81611253565b9050919050565b7f496e76616c6964206f7574636f6d650000000000000000000000000000000000600082015250565b60006112cc600f83610f33565b91506112d782611296565b602082019050919050565b600060208201905081810360008301526112fb816112bf565b9050919050565b600081905092915050565b82818337600083830152505050565b60006113288385611302565b935061133583858461130d565b82840190509392505050565b6000819050919050565b61135c61135782610c5a565b611341565b82525050565b60008160601b9050919050565b600061137a82611362565b9050919050565b600061138c8261136f565b9050919050565b6113a461139f82610df9565b611381565b82525050565b60006113b782868861131c565b91506113c3828561134b565b6020820191506113d38284611393565b60148201915081905095945050505050565b7f4e487b7100000000000000000000000000000000000000000000000000000000600052604160045260246000fd5b7f42656c6f77200000000000000000000000000000000000000000000000000000600082015250565b600061144a600683611302565b915061145582611414565b600682019050919050565b600061146b82610f28565b6114758185611302565b9350611485818560208601610f44565b80840191505092915050565b600061149c8261143d565b91506114a88284611460565b915081905092915050565b7f4e487b7100000000000000000000000000000000000000000000000000000000600052603260045260246000fd5b7f41626f7665200000000000000000000000000000000000000000000000000000600082015250565b6000611518600683611302565b9150611523826114e2565b600682019050919050565b60006115398261150b565b91506115458284611460565b915081905092915050565b7f4e487b7100000000000000000000000000000000000000000000000000000000600052602260045260246000fd5b6000600282049050600182168061159757607f821691505b6020821081036115aa576115a9611550565b5b50919050565b60008190508160005260206000209050919050565b60006020601f8301049050919050565b600082821b905092915050565b6000600883026116127fffffffffffffffffffffffffffffffffffffffffffffffffffffffffffffffff826115d5565b61161c86836115d5565b95508019841693508086168417925050509392505050565b600061164f61164a61164584610c5a565b610d1a565b610c5a565b9050919050565b6000819050919050565b61166983611634565b61167d61167582611656565b8484546115e2565b825550505050565b600090565b611692611685565b61169d818484611660565b505050565b5b818110156116c1576116b660008261168a565b6001810190506116a3565b5050565b601f821115611706576116d7816115b0565b6116e0846115c5565b810160208510156116ef578190505b6117036116fb856115c5565b8301826116a2565b50505b505050565b600082821c905092915050565b60006117296000198460080261170b565b1980831691505092915050565b60006117428383611718565b9150826002028217905092915050565b61175b82610f28565b67ffffffffffffffff811115611774576117736113e5565b5b61177e825461157f565b6117898282856116c5565b600060209050601f8311600181146117bc57600084156117aa578287015190505b6117b48582611736565b86555061181c565b601f1984166117ca866115b0565b60005b828110156117f2578489015182556001820191506020850194506020810190506117cd565b8683101561180f578489015161180b601f891682611718565b8355505b6001600288020188555050505b505050505050565b60006118308385610f33565b935061183d83858461130d565b61184683610f6e565b840190509392505050565b6000819050919050565b600061187661187161186c84611851565b610d1a565b610c5a565b9050919050565b6118868161185b565b82525050565b600060608201905081810360008301526118a7818688611824565b90506118b6602083018561104a565b6118c3604083018461187d565b95945050505050565b7f43617465676f726963616c206d61726b657473206e65656420332b206f75746360008201527f6f6d657300000000000000000000000000000000000000000000000000000000602082015250565b6000611928602483610f33565b9150611933826118cc565b604082019050919050565b600060208201905081810360008301526119578161191b565b9050919050565b61196782610f6e565b810181811067ffffffffffffffff82111715611986576119856113e5565b5b80604052505050565b6000611999610c10565b90506119a5828261195e565b919050565b600067ffffffffffffffff8211156119c5576119c46113e5565b5b602082029050602081019050919050565b600080fd5b600067ffffffffffffffff8211156119f6576119f56113e5565b5b6119ff82610f6e565b9050602081019050919050565b6000611a1f611a1a846119db565b61198f565b905082815260208101848484011115611a3b57611a3a6119d6565b5b611a4684828561130d565b509392505050565b600082601f830112611a6357611a62610d94565b5b8135611a73848260208601611a0c565b91505092915050565b6000611a8f611a8a846119aa565b61198f565b90508083825260208201905060208402830185811115611ab257611ab1610d9e565b5b835b81811015611af957803567ffffffffffffffff811115611ad757611ad6610d94565b5b808601611ae48982611a4e565b85526020850194505050602081019050611ab4565b5050509392505050565b6000611b10368484611a7c565b905092915050565b60006060820190508181036000830152611b33818688611824565b9050611b42602083018561104a565b611b4f6040830184610cd0565b95945050505050565b7f4e487b7100000000000000000000000000000000000000000000000000000000600052601160045260246000fd5b6000611b9282610c5a565b91507fffffffffffffffffffffffffffffffffffffffffffffffffffffffffffffffff8203611bc457611bc3611b58565b5b600182019050919050565b7f4e487b7100000000000000000000000000000000000000000000000000000000600052601260045260246000fd5b6000611c0982610c5a565b9150611c1483610c5a565b925082611c2457611c23611bcf565b5b828204905092915050565b6000611c3a82610c5a565b9150611c4583610c5a565b9250828203905081811115611c5d57611c5c611b58565b5b92915050565b6000611c6e82610c5a565b9150611c7983610c5a565b9250828202611c8781610c5a565b91508282048414831517611c9e57611c9d611b58565b5b5092915050565b600060ff82169050919050565b6000611cbd82611ca5565b9150611cc883611ca5565b9250828201905060ff811115611ce157611ce0611b58565b5b9291505056fea26469706673582212203b69474967d781a2d46165bdbc3f56c8f8d086179263ce9ebb751c0821f5e27c64736f6c63430008140033","opcodes":"PUSH1 0x80 PUSH1 0x40 MSTORE CALLVALUE DUP1 ISZERO PUSH3 0x11 JUMPI PUSH1 0x0 DUP1 REVERT JUMPDEST POP PUSH1 0x40 MLOAD PUSH3 0x1E48 CODESIZE SUB DUP1 PUSH3 0x1E48 DUP4 CODECOPY DUP2 DUP2 ADD PUSH1 0x40 MSTORE DUP2 ADD SWAP1 PUSH3 0x37 SWAP2 SWAP1 PUSH3 0xE9 JUMP JUMPDEST DUP1 PUSH1 0x2 PUSH1 0x0 PUSH2 0x100 EXP DUP2 SLOAD DUP2 PUSH20 0xFFFFFFFFFFFFFFFFFFFFFFFFFFFFFFFFFFFFFFFF MUL NOT AND SWAP1 DUP4 PUSH20 0xFFFFFFFFFFFFFFFFFFFFFFFFFFFFFFFFFFFFFFFF AND MUL OR SWAP1 SSTORE POP POP PUSH3 0x11B JUMP JUMPDEST PUSH1 0x0 DUP1 REVERT JUMPDEST PUSH1 0x0 PUSH20 0xFFFFFFFFFFFFFFFFFFFFFFFFFFFFFFFFFFFFFFFF DUP3 AND SWAP1 POP SWAP2 SWAP1 POP JUMP JUMPDEST PUSH1 0x0 PUSH3 0xB1 DUP3 PUSH3 0x84 JUMP JUMPDEST SWAP1 POP SWAP2 SWAP1 POP JUMP JUMPDEST PUSH3 0xC3 DUP2 PUSH3 0xA4 JUMP JUMPDEST DUP2 EQ PUSH3 0xCF JUMPI PUSH1 0x0 DUP1 REVERT JUMPDEST POP JUMP JUMPDEST PUSH1 0x0 DUP2 MLOAD SWAP1 POP PUSH3 0xE3 DUP2 PUSH3 0xB8 JUMP JUMPDEST SWAP3 SWAP2 POP POP JUMP JUMPDEST PUSH1 0x0 PUSH1 0x20 DUP3 DUP5 SUB SLT ISZERO PUSH3 0x102 JUMPI PUSH3 0x101 PUSH3 0x7F JUMP JUMPDEST JUMPDEST PUSH1 0x0 PUSH3 0x112 DUP5 DUP3 DUP6 ADD PUSH3 0xD2 JUMP JUMPDEST SWAP2 POP POP SWAP3 SWAP2 POP POP JUMP JUMPDEST PUSH2 0x1D1D DUP1 PUSH3 0x12B PUSH1 0x0 CODECOPY PUSH1 0x0 RETURN INVALID PUSH1 0x80 PUSH1 0x40 MSTORE CALLVALUE DUP1 ISZERO PUSH2 0x10 JUMPI PUSH1 0x0 DUP1 REVERT JUMPDEST POP PUSH1 0x4 CALLDATASIZE LT PUSH2 0x62 JUMPI PUSH1 0x0 CALLDATALOAD PUSH1 0xE0 SHR DUP1 PUSH4 0xFE5F3BE EQ PUSH2 0x67 JUMPI DUP1 PUSH4 0x590F4CB3 EQ PUSH2 0x97 JUMPI DUP1 PUSH4 0x5BD9E299 EQ PUSH2 0xB3 JUMPI DUP1 PUSH4 0x644FF8A0 EQ PUSH2 0xD1 JUMPI DUP1 PUSH4 0x7564912B EQ PUSH2 0x101 JUMPI DUP1 PUSH4 0x87FFAFD1 EQ PUSH2 0x136 JUMPI JUMPDEST PUSH1 0x0 DUP1 REVERT JUMPDEST PUSH2 0x81 PUSH1 0x4 DUP1 CALLDATASIZE SUB DUP2 ADD SWAP1 PUSH2 0x7C SWAP2 SWAP1 PUSH2 0xC90 JUMP JUMPDEST PUSH2 0x166 JUMP JUMPDEST PUSH1 0x40 MLOAD PUSH2 0x8E SWAP2 SWAP1 PUSH2 0xCDF JUMP JUMPDEST PUSH1 0x40 MLOAD DUP1 SWAP2 SUB SWAP1 RETURN JUMPDEST PUSH2 0xB1 PUSH1 0x4 DUP1 CALLDATASIZE SUB DUP2 ADD SWAP1 PUSH2 0xAC SWAP2 SWAP1 PUSH2 0xC90 JUMP JUMPDEST PUSH2 0x18B JUMP JUMPDEST STOP JUMPDEST PUSH2 0xBB PUSH2 0x331 JUMP JUMPDEST PUSH1 0x40 MLOAD PUSH2 0xC8 SWAP2 SWAP1 PUSH2 0xD79 JUMP JUMPDEST PUSH1 0x40 MLOAD DUP1 SWAP2 SUB SWAP1 RETURN JUMPDEST PUSH2 0xEB PUSH1 0x4 DUP1 CALLDATASIZE SUB DUP2 ADD SWAP1 PUSH2 0xE6 SWAP2 SWAP1 PUSH2 0xE37 JUMP JUMPDEST PUSH2 0x357 JUMP JUMPDEST PUSH1 0x40 MLOAD PUSH2 0xF8 SWAP2 SWAP1 PUSH2 0xEE0 JUMP JUMPDEST PUSH1 0x40 MLOAD DUP1 SWAP2 SUB SWAP1 RETURN JUMPDEST PUSH2 0x11B PUSH1 0x4 DUP1 CALLDATASIZE SUB DUP2 ADD SWAP1 PUSH2 0x116 SWAP2 SWAP1 PUSH2 0xEFB JUMP JUMPDEST PUSH2 0x649 JUMP JUMPDEST PUSH1 0x40 MLOAD PUSH2 0x12D SWAP7 SWAP6 SWAP5 SWAP4 SWAP3 SWAP2 SWAP1 PUSH2 0x1059 JUMP JUMPDEST PUSH1 0x40 MLOAD DUP1 SWAP2 SUB SWAP1 RETURN JUMPDEST PUSH2 0x150 PUSH1 0x4 DUP1 CALLDATASIZE SUB DUP2 ADD SWAP1 PUSH2 0x14B SWAP2 SWAP1 PUSH2 0x1117 JUMP JUMPDEST PUSH2 0x747 JUMP JUMPDEST PUSH1 0x40 MLOAD PUSH2 0x15D SWAP2 SWAP1 PUSH2 0xEE0 JUMP JUMPDEST PUSH1 0x40 MLOAD DUP1 SWAP2 SUB SWAP1 RETURN JUMPDEST PUSH1 0x1 PUSH1 0x20 MSTORE DUP2 PUSH1 0x0 MSTORE PUSH1 0x40 PUSH1 0x0 KECCAK256 PUSH1 0x20 MSTORE DUP1 PUSH1 0x0 MSTORE PUSH1 0x40 PUSH1 0x0 KECCAK256 PUSH1 0x0 SWAP2 POP SWAP2 POP POP SLOAD DUP2 JUMP JUMPDEST PUSH1 0x0 DUP1 PUSH1 0x0 DUP5 DUP2 MSTORE PUSH1 0x20 ADD SWAP1 DUP2 MSTORE PUSH1 0x20 ADD PUSH1 0x0 KECCAK256 SWAP1 POP DUP1 PUSH1 0x3 ADD PUSH1 0x0 SWAP1 SLOAD SWAP1 PUSH2 0x100 EXP SWAP1 DIV PUSH20 0xFFFFFFFFFFFFFFFFFFFFFFFFFFFFFFFFFFFFFFFF AND PUSH20 0xFFFFFFFFFFFFFFFFFFFFFFFFFFFFFFFFFFFFFFFF AND CALLER PUSH20 0xFFFFFFFFFFFFFFFFFFFFFFFFFFFFFFFFFFFFFFFF AND EQ PUSH2 0x233 JUMPI PUSH1 0x40 MLOAD PUSH32 0x8C379A000000000000000000000000000000000000000000000000000000000 DUP2 MSTORE PUSH1 0x4 ADD PUSH2 0x22A SWAP1 PUSH2 0x120A JUMP JUMPDEST PUSH1 0x40 MLOAD DUP1 SWAP2 SUB SWAP1 REVERT JUMPDEST DUP1 PUSH1 0x3 ADD PUSH1 0x14 SWAP1 SLOAD SWAP1 PUSH2 0x100 EXP SWAP1 DIV PUSH1 0xFF AND ISZERO PUSH2 0x285 JUMPI PUSH1 0x40 MLOAD PUSH32 0x8C379A000000000000000000000000000000000000000000000000000000000 DUP2 MSTORE PUSH1 0x4 ADD PUSH2 0x27C SWAP1 PUSH2 0x1276 JUMP JUMPDEST PUSH1 0x40 MLOAD DUP1 SWAP2 SUB SWAP1 REVERT JUMPDEST DUP1 PUSH1 0x1 ADD DUP1 SLOAD SWAP1 POP DUP3 LT PUSH2 0x2CE JUMPI PUSH1 0x40 MLOAD PUSH32 0x8C379A000000000000000000000000000000000000000000000000000000000 DUP2 MSTORE PUSH1 0x4 ADD PUSH2 0x2C5 SWAP1 PUSH2 0x12E2 JUMP JUMPDEST PUSH1 0x40 MLOAD DUP1 SWAP2 SUB SWAP1 REVERT JUMPDEST PUSH1 0x1 DUP2 PUSH1 0x3 ADD PUSH1 0x14 PUSH2 0x100 EXP DUP2 SLOAD DUP2 PUSH1 0xFF MUL NOT AND SWAP1 DUP4 ISZERO ISZERO MUL OR SWAP1 SSTORE POP DUP2 DUP2 PUSH1 0x4 ADD DUP2 SWAP1 SSTORE POP DUP3 PUSH32 0xAD240FAC7C25C6E791819F11E8D7D57C999D23289EF3AD025790F3249B23E865 DUP4 PUSH1 0x40 MLOAD PUSH2 0x324 SWAP2 SWAP1 PUSH2 0xCDF JUMP JUMPDEST PUSH1 0x40 MLOAD DUP1 SWAP2 SUB SWAP1 LOG2 POP POP POP JUMP JUMPDEST PUSH1 0x2 PUSH1 0x0 SWAP1 SLOAD SWAP1 PUSH2 0x100 EXP SWAP1 DIV PUSH20 0xFFFFFFFFFFFFFFFFFFFFFFFFFFFFFFFFFFFFFFFF AND DUP2 JUMP JUMPDEST PUSH1 0x0 DUP7 DUP7 TIMESTAMP CALLER PUSH1 0x40 MLOAD PUSH1 0x20 ADD PUSH2 0x370 SWAP5 SWAP4 SWAP3 SWAP2 SWAP1 PUSH2 0x13AA JUMP JUMPDEST PUSH1 0x40 MLOAD PUSH1 0x20 DUP2 DUP4 SUB SUB DUP2 MSTORE SWAP1 PUSH1 0x40 MSTORE DUP1 MLOAD SWAP1 PUSH1 0x20 ADD KECCAK256 SWAP1 POP PUSH1 0x0 PUSH1 0x2 PUSH8 0xFFFFFFFFFFFFFFFF DUP2 GT ISZERO PUSH2 0x3A5 JUMPI PUSH2 0x3A4 PUSH2 0x13E5 JUMP JUMPDEST JUMPDEST PUSH1 0x40 MLOAD SWAP1 DUP1 DUP3 MSTORE DUP1 PUSH1 0x20 MUL PUSH1 0x20 ADD DUP3 ADD PUSH1 0x40 MSTORE DUP1 ISZERO PUSH2 0x3D8 JUMPI DUP2 PUSH1 0x20 ADD JUMPDEST PUSH1 0x60 DUP2 MSTORE PUSH1 0x20 ADD SWAP1 PUSH1 0x1 SWAP1 SUB SWAP1 DUP2 PUSH2 0x3C3 JUMPI SWAP1 POP JUMPDEST POP SWAP1 POP PUSH2 0x3E4 DUP7 PUSH2 0x9AE JUMP JUMPDEST PUSH1 0x40 MLOAD PUSH1 0x20 ADD PUSH2 0x3F4 SWAP2 SWAP1 PUSH2 0x1491 JUMP JUMPDEST PUSH1 0x40 MLOAD PUSH1 0x20 DUP2 DUP4 SUB SUB DUP2 MSTORE SWAP1 PUSH1 0x40 MSTORE DUP2 PUSH1 0x0 DUP2 MLOAD DUP2 LT PUSH2 0x417 JUMPI PUSH2 0x416 PUSH2 0x14B3 JUMP JUMPDEST JUMPDEST PUSH1 0x20 MUL PUSH1 0x20 ADD ADD DUP2 SWAP1 MSTORE POP PUSH2 0x42B DUP6 PUSH2 0x9AE JUMP JUMPDEST PUSH1 0x40 MLOAD PUSH1 0x20 ADD PUSH2 0x43B SWAP2 SWAP1 PUSH2 0x152E JUMP JUMPDEST PUSH1 0x40 MLOAD PUSH1 0x20 DUP2 DUP4 SUB SUB DUP2 MSTORE SWAP1 PUSH1 0x40 MSTORE DUP2 PUSH1 0x1 DUP2 MLOAD DUP2 LT PUSH2 0x45E JUMPI PUSH2 0x45D PUSH2 0x14B3 JUMP JUMPDEST JUMPDEST PUSH1 0x20 MUL PUSH1 0x20 ADD ADD DUP2 SWAP1 MSTORE POP PUSH1 0x40 MLOAD DUP1 PUSH1 0xE0 ADD PUSH1 0x40 MSTORE DUP1 DUP10 DUP10 DUP1 DUP1 PUSH1 0x1F ADD PUSH1 0x20 DUP1 SWAP2 DIV MUL PUSH1 0x20 ADD PUSH1 0x40 MLOAD SWAP1 DUP2 ADD PUSH1 0x40 MSTORE DUP1 SWAP4 SWAP3 SWAP2 SWAP1 DUP2 DUP2 MSTORE PUSH1 0x20 ADD DUP4 DUP4 DUP1 DUP3 DUP5 CALLDATACOPY PUSH1 0x0 DUP2 DUP5 ADD MSTORE PUSH1 0x1F NOT PUSH1 0x1F DUP3 ADD AND SWAP1 POP DUP1 DUP4 ADD SWAP3 POP POP POP POP POP POP POP DUP2 MSTORE PUSH1 0x20 ADD DUP3 DUP2 MSTORE PUSH1 0x20 ADD DUP6 DUP2 MSTORE PUSH1 0x20 ADD DUP5 PUSH20 0xFFFFFFFFFFFFFFFFFFFFFFFFFFFFFFFFFFFFFFFF AND DUP2 MSTORE PUSH1 0x20 ADD PUSH1 0x0 ISZERO ISZERO DUP2 MSTORE PUSH1 0x20 ADD PUSH1 0x0 DUP2 MSTORE PUSH1 0x20 ADD PUSH1 0x2 DUP1 DUP2 GT ISZERO PUSH2 0x509 JUMPI PUSH2 0x508 PUSH2 0xFE2 JUMP JUMPDEST JUMPDEST DUP2 MSTORE POP PUSH1 0x0 DUP1 DUP5 DUP2 MSTORE PUSH1 0x20 ADD SWAP1 DUP2 MSTORE PUSH1 0x20 ADD PUSH1 0x0 KECCAK256 PUSH1 0x0 DUP3 ADD MLOAD DUP2 PUSH1 0x0 ADD SWAP1 DUP2 PUSH2 0x533 SWAP2 SWAP1 PUSH2 0x1752 JUMP JUMPDEST POP PUSH1 0x20 DUP3 ADD MLOAD DUP2 PUSH1 0x1 ADD SWAP1 DUP1 MLOAD SWAP1 PUSH1 0x20 ADD SWAP1 PUSH2 0x550 SWAP3 SWAP2 SWAP1 PUSH2 0xB36 JUMP JUMPDEST POP PUSH1 0x40 DUP3 ADD MLOAD DUP2 PUSH1 0x2 ADD SSTORE PUSH1 0x60 DUP3 ADD MLOAD DUP2 PUSH1 0x3 ADD PUSH1 0x0 PUSH2 0x100 EXP DUP2 SLOAD DUP2 PUSH20 0xFFFFFFFFFFFFFFFFFFFFFFFFFFFFFFFFFFFFFFFF MUL NOT AND SWAP1 DUP4 PUSH20 0xFFFFFFFFFFFFFFFFFFFFFFFFFFFFFFFFFFFFFFFF AND MUL OR SWAP1 SSTORE POP PUSH1 0x80 DUP3 ADD MLOAD DUP2 PUSH1 0x3 ADD PUSH1 0x14 PUSH2 0x100 EXP DUP2 SLOAD DUP2 PUSH1 0xFF MUL NOT AND SWAP1 DUP4 ISZERO ISZERO MUL OR SWAP1 SSTORE POP PUSH1 0xA0 DUP3 ADD MLOAD DUP2 PUSH1 0x4 ADD SSTORE PUSH1 0xC0 DUP3 ADD MLOAD DUP2 PUSH1 0x5 ADD PUSH1 0x0 PUSH2 0x100 EXP DUP2 SLOAD DUP2 PUSH1 0xFF MUL NOT AND SWAP1 DUP4 PUSH1 0x2 DUP2 GT ISZERO PUSH2 0x5F7 JUMPI PUSH2 0x5F6 PUSH2 0xFE2 JUMP JUMPDEST JUMPDEST MUL OR SWAP1 SSTORE POP SWAP1 POP POP DUP2 PUSH32 0x8E05D5A91315CFFC0EB2B6C6FA7585169BC6B6337365321011EE73B414F7E7A2 DUP10 DUP10 PUSH1 0x2 DUP1 PUSH1 0x40 MLOAD PUSH2 0x636 SWAP5 SWAP4 SWAP3 SWAP2 SWAP1 PUSH2 0x188C JUMP JUMPDEST PUSH1 0x40 MLOAD DUP1 SWAP2 SUB SWAP1 LOG2 POP SWAP7 SWAP6 POP POP POP POP POP POP JUMP JUMPDEST PUSH1 0x0 PUSH1 0x20 MSTORE DUP1 PUSH1 0x0 MSTORE PUSH1 0x40 PUSH1 0x0 KECCAK256 PUSH1 0x0 SWAP2 POP SWAP1 POP DUP1 PUSH1 0x0 ADD DUP1 SLOAD PUSH2 0x66C SWAP1 PUSH2 0x157F JUMP JUMPDEST DUP1 PUSH1 0x1F ADD PUSH1 0x20 DUP1 SWAP2 DIV MUL PUSH1 0x20 ADD PUSH1 0x40 MLOAD SWAP1 DUP2 ADD PUSH1 0x40 MSTORE DUP1 SWAP3 SWAP2 SWAP1 DUP2 DUP2 MSTORE PUSH1 0x20 ADD DUP3 DUP1 SLOAD PUSH2 0x698 SWAP1 PUSH2 0x157F JUMP JUMPDEST DUP1 ISZERO PUSH2 0x6E5 JUMPI DUP1 PUSH1 0x1F LT PUSH2 0x6BA JUMPI PUSH2 0x100 DUP1 DUP4 SLOAD DIV MUL DUP4 MSTORE SWAP2 PUSH1 0x20 ADD SWAP2 PUSH2 0x6E5 JUMP JUMPDEST DUP3 ADD SWAP2 SWAP1 PUSH1 0x0 MSTORE PUSH1 0x20 PUSH1 0x0 KECCAK256 SWAP1 JUMPDEST DUP2 SLOAD DUP2 MSTORE SWAP1 PUSH1 0x1 ADD SWAP1 PUSH1 0x20 ADD DUP1 DUP4 GT PUSH2 0x6C8 JUMPI DUP3 SWAP1 SUB PUSH1 0x1F AND DUP3 ADD SWAP2 JUMPDEST POP POP POP POP POP SWAP1 DUP1 PUSH1 0x2 ADD SLOAD SWAP1 DUP1 PUSH1 0x3 ADD PUSH1 0x0 SWAP1 SLOAD SWAP1 PUSH2 0x100 EXP SWAP1 DIV PUSH20 0xFFFFFFFFFFFFFFFFFFFFFFFFFFFFFFFFFFFFFFFF AND SWAP1 DUP1 PUSH1 0x3 ADD PUSH1 0x14 SWAP1 SLOAD SWAP1 PUSH2 0x100 EXP SWAP1 DIV PUSH1 0xFF AND SWAP1 DUP1 PUSH1 0x4 ADD SLOAD SWAP1 DUP1 PUSH1 0x5 ADD PUSH1 0x0 SWAP1 SLOAD SWAP1 PUSH2 0x100 EXP SWAP1 DIV PUSH1 0xFF AND SWAP1 POP DUP7 JUMP JUMPDEST PUSH1 0x0 PUSH1 0x3 DUP6 DUP6 SWAP1 POP LT ISZERO PUSH2 0x790 JUMPI PUSH1 0x40 MLOAD PUSH32 0x8C379A000000000000000000000000000000000000000000000000000000000 DUP2 MSTORE PUSH1 0x4 ADD PUSH2 0x787 SWAP1 PUSH2 0x193E JUMP JUMPDEST PUSH1 0x40 MLOAD DUP1 SWAP2 SUB SWAP1 REVERT JUMPDEST DUP7 DUP7 TIMESTAMP CALLER PUSH1 0x40 MLOAD PUSH1 0x20 ADD PUSH2 0x7A7 SWAP5 SWAP4 SWAP3 SWAP2 SWAP1 PUSH2 0x13AA JUMP JUMPDEST PUSH1 0x40 MLOAD PUSH1 0x20 DUP2 DUP4 SUB SUB DUP2 MSTORE SWAP1 PUSH1 0x40 MSTORE DUP1 MLOAD SWAP1 PUSH1 0x20 ADD KECCAK256 SWAP1 POP PUSH1 0x40 MLOAD DUP1 PUSH1 0xE0 ADD PUSH1 0x40 MSTORE DUP1 DUP9 DUP9 DUP1 DUP1 PUSH1 0x1F ADD PUSH1 0x20 DUP1 SWAP2 DIV MUL PUSH1 0x20 ADD PUSH1 0x40 MLOAD SWAP1 DUP2 ADD PUSH1 0x40 MSTORE DUP1 SWAP4 SWAP3 SWAP2 SWAP1 DUP2 DUP2 MSTORE PUSH1 0x20 ADD DUP4 DUP4 DUP1 DUP3 DUP5 CALLDATACOPY PUSH1 0x0 DUP2 DUP5 ADD MSTORE PUSH1 0x1F NOT PUSH1 0x1F DUP3 ADD AND SWAP1 POP DUP1 DUP4 ADD SWAP3 POP POP POP POP POP POP POP DUP2 MSTORE PUSH1 0x20 ADD DUP7 DUP7 SWAP1 PUSH2 0x821 SWAP2 SWAP1 PUSH2 0x1B03 JUMP JUMPDEST DUP2 MSTORE PUSH1 0x20 ADD DUP5 DUP2 MSTORE PUSH1 0x20 ADD DUP4 PUSH20 0xFFFFFFFFFFFFFFFFFFFFFFFFFFFFFFFFFFFFFFFF AND DUP2 MSTORE PUSH1 0x20 ADD PUSH1 0x0 ISZERO ISZERO DUP2 MSTORE PUSH1 0x20 ADD PUSH1 0x0 DUP2 MSTORE PUSH1 0x20 ADD PUSH1 0x1 PUSH1 0x2 DUP2 GT ISZERO PUSH2 0x86C JUMPI PUSH2 0x86B PUSH2 0xFE2 JUMP JUMPDEST JUMPDEST DUP2 MSTORE POP PUSH1 0x0 DUP1 DUP4 DUP2 MSTORE PUSH1 0x20 ADD SWAP1 DUP2 MSTORE PUSH1 0x20 ADD PUSH1 0x0 KECCAK256 PUSH1 0x0 DUP3 ADD MLOAD DUP2 PUSH1 0x0 ADD SWAP1 DUP2 PUSH2 0x896 SWAP2 SWAP1 PUSH2 0x1752 JUMP JUMPDEST POP PUSH1 0x20 DUP3 ADD MLOAD DUP2 PUSH1 0x1 ADD SWAP1 DUP1 MLOAD SWAP1 PUSH1 0x20 ADD SWAP1 PUSH2 0x8B3 SWAP3 SWAP2 SWAP1 PUSH2 0xB36 JUMP JUMPDEST POP PUSH1 0x40 DUP3 ADD MLOAD DUP2 PUSH1 0x2 ADD SSTORE PUSH1 0x60 DUP3 ADD MLOAD DUP2 PUSH1 0x3 ADD PUSH1 0x0 PUSH2 0x100 EXP DUP2 SLOAD DUP2 PUSH20 0xFFFFFFFFFFFFFFFFFFFFFFFFFFFFFFFFFFFFFFFF MUL NOT AND SWAP1 DUP4 PUSH20 0xFFFFFFFFFFFFFFFFFFFFFFFFFFFFFFFFFFFFFFFF AND MUL OR SWAP1 SSTORE POP PUSH1 0x80 DUP3 ADD MLOAD DUP2 PUSH1 0x3 ADD PUSH1 0x14 PUSH2 0x100 EXP DUP2 SLOAD DUP2 PUSH1 0xFF MUL NOT AND SWAP1 DUP4 ISZERO ISZERO MUL OR SWAP1 SSTORE POP PUSH1 0xA0 DUP3 ADD MLOAD DUP2 PUSH1 0x4 ADD SSTORE PUSH1 0xC0 DUP3 ADD MLOAD DUP2 PUSH1 0x5 ADD PUSH1 0x0 PUSH2 0x100 EXP DUP2 SLOAD DUP2 PUSH1 0xFF MUL NOT AND SWAP1 DUP4 PUSH1 0x2 DUP2 GT ISZERO PUSH2 0x95A JUMPI PUSH2 0x959 PUSH2 0xFE2 JUMP JUMPDEST JUMPDEST MUL OR SWAP1 SSTORE POP SWAP1 POP POP DUP1 PUSH32 0x8E05D5A91315CFFC0EB2B6C6FA7585169BC6B6337365321011EE73B414F7E7A2 DUP9 DUP9 PUSH1 0x1 DUP10 DUP10 SWAP1 POP PUSH1 0x40 MLOAD PUSH2 0x99C SWAP5 SWAP4 SWAP3 SWAP2 SWAP1 PUSH2 0x1B18 JUMP JUMPDEST PUSH1 0x40 MLOAD DUP1 SWAP2 SUB SWAP1 LOG2 SWAP7 SWAP6 POP POP POP POP POP POP JUMP JUMPDEST PUSH1 0x60 PUSH1 0x0 DUP3 SUB PUSH2 0x9F5 JUMPI PUSH1 0x40 MLOAD DUP1 PUSH1 0x40 ADD PUSH1 0x40 MSTORE DUP1 PUSH1 0x1 DUP2 MSTORE PUSH1 0x20 ADD PUSH32 0x3000000000000000000000000000000000000000000000000000000000000000 DUP2 MSTORE POP SWAP1 POP PUSH2 0xB31 JUMP JUMPDEST PUSH1 0x0 DUP3 SWAP1 POP PUSH1 0x0 JUMPDEST PUSH1 0x0 DUP3 EQ PUSH2 0xA27 JUMPI DUP1 DUP1 PUSH2 0xA10 SWAP1 PUSH2 0x1B87 JUMP JUMPDEST SWAP2 POP POP PUSH1 0xA DUP3 PUSH2 0xA20 SWAP2 SWAP1 PUSH2 0x1BFE JUMP JUMPDEST SWAP2 POP PUSH2 0x9FD JUMP JUMPDEST PUSH1 0x0 DUP2 PUSH8 0xFFFFFFFFFFFFFFFF DUP2 GT ISZERO PUSH2 0xA43 JUMPI PUSH2 0xA42 PUSH2 0x13E5 JUMP JUMPDEST JUMPDEST PUSH1 0x40 MLOAD SWAP1 DUP1 DUP3 MSTORE DUP1 PUSH1 0x1F ADD PUSH1 0x1F NOT AND PUSH1 0x20 ADD DUP3 ADD PUSH1 0x40 MSTORE DUP1 ISZERO PUSH2 0xA75 JUMPI DUP2 PUSH1 0x20 ADD PUSH1 0x1 DUP3 MUL DUP1 CALLDATASIZE DUP4 CALLDATACOPY DUP1 DUP3 ADD SWAP2 POP POP SWAP1 POP JUMPDEST POP SWAP1 POP PUSH1 0x0 DUP3 SWAP1 POP JUMPDEST PUSH1 0x0 DUP7 EQ PUSH2 0xB29 JUMPI PUSH1 0x1 DUP2 PUSH2 0xA93 SWAP2 SWAP1 PUSH2 0x1C2F JUMP JUMPDEST SWAP1 POP PUSH1 0x0 PUSH1 0xA DUP1 DUP9 PUSH2 0xAA5 SWAP2 SWAP1 PUSH2 0x1BFE JUMP JUMPDEST PUSH2 0xAAF SWAP2 SWAP1 PUSH2 0x1C63 JUMP JUMPDEST DUP8 PUSH2 0xABA SWAP2 SWAP1 PUSH2 0x1C2F JUMP JUMPDEST PUSH1 0x30 PUSH2 0xAC6 SWAP2 SWAP1 PUSH2 0x1CB2 JUMP JUMPDEST SWAP1 POP PUSH1 0x0 DUP2 PUSH1 0xF8 SHL SWAP1 POP DUP1 DUP5 DUP5 DUP2 MLOAD DUP2 LT PUSH2 0xAE4 JUMPI PUSH2 0xAE3 PUSH2 0x14B3 JUMP JUMPDEST JUMPDEST PUSH1 0x20 ADD ADD SWAP1 PUSH31 0xFFFFFFFFFFFFFFFFFFFFFFFFFFFFFFFFFFFFFFFFFFFFFFFFFFFFFFFFFFFFFF NOT AND SWAP1 DUP2 PUSH1 0x0 BYTE SWAP1 MSTORE8 POP PUSH1 0xA DUP9 PUSH2 0xB20 SWAP2 SWAP1 PUSH2 0x1BFE JUMP JUMPDEST SWAP8 POP POP POP PUSH2 0xA7E JUMP JUMPDEST DUP2 SWAP5 POP POP POP POP POP JUMPDEST SWAP2 SWAP1 POP JUMP JUMPDEST DUP3 DUP1 SLOAD DUP3 DUP3 SSTORE SWAP1 PUSH1 0x0 MSTORE PUSH1 0x20 PUSH1 0x0 KECCAK256 SWAP1 DUP2 ADD SWAP3 DUP3 ISZERO PUSH2 0xB7E JUMPI SWAP2 PUSH1 0x20 MUL DUP3 ADD JUMPDEST DUP3 DUP2 GT ISZERO PUSH2 0xB7D JUMPI DUP3 MLOAD DUP3 SWAP1 DUP2 PUSH2 0xB6D SWAP2 SWAP1 PUSH2 0x1752 JUMP JUMPDEST POP SWAP2 PUSH1 0x20 ADD SWAP2 SWAP1 PUSH1 0x1 ADD SWAP1 PUSH2 0xB56 JUMP JUMPDEST JUMPDEST POP SWAP1 POP PUSH2 0xB8B SWAP2 SWAP1 PUSH2 0xB8F JUMP JUMPDEST POP SWAP1 JUMP JUMPDEST JUMPDEST DUP1 DUP3 GT ISZERO PUSH2 0xBAF JUMPI PUSH1 0x0 DUP2 DUP2 PUSH2 0xBA6 SWAP2 SWAP1 PUSH2 0xBB3 JUMP JUMPDEST POP PUSH1 0x1 ADD PUSH2 0xB90 JUMP JUMPDEST POP SWAP1 JUMP JUMPDEST POP DUP1 SLOAD PUSH2 0xBBF SWAP1 PUSH2 0x157F JUMP JUMPDEST PUSH1 0x0 DUP3 SSTORE DUP1 PUSH1 0x1F LT PUSH2 0xBD1 JUMPI POP PUSH2 0xBF0 JUMP JUMPDEST PUSH1 0x1F ADD PUSH1 0x20 SWAP1 DIV SWAP1 PUSH1 0x0 MSTORE PUSH1 0x20 PUSH1 0x0 KECCAK256 SWAP1 DUP2 ADD SWAP1 PUSH2 0xBEF SWAP2 SWAP1 PUSH2 0xBF3 JUMP JUMPDEST JUMPDEST POP JUMP JUMPDEST JUMPDEST DUP1 DUP3 GT ISZERO PUSH2 0xC0C JUMPI PUSH1 0x0 DUP2 PUSH1 0x0 SWAP1 SSTORE POP PUSH1 0x1 ADD PUSH2 0xBF4 JUMP JUMPDEST POP SWAP1 JUMP JUMPDEST PUSH1 0x0 PUSH1 0x40 MLOAD SWAP1 POP SWAP1 JUMP JUMPDEST PUSH1 0x0 DUP1 REVERT JUMPDEST PUSH1 0x0 DUP1 REVERT JUMPDEST PUSH1 0x0 DUP2 SWAP1 POP SWAP2 SWAP1 POP JUMP JUMPDEST PUSH2 0xC37 DUP2 PUSH2 0xC24 JUMP JUMPDEST DUP2 EQ PUSH2 0xC42 JUMPI PUSH1 0x0 DUP1 REVERT JUMPDEST POP JUMP JUMPDEST PUSH1 0x0 DUP2 CALLDATALOAD SWAP1 POP PUSH2 0xC54 DUP2 PUSH2 0xC2E JUMP JUMPDEST SWAP3 SWAP2 POP POP JUMP JUMPDEST PUSH1 0x0 DUP2 SWAP1 POP SWAP2 SWAP1 POP JUMP JUMPDEST PUSH2 0xC6D DUP2 PUSH2 0xC5A JUMP JUMPDEST DUP2 EQ PUSH2 0xC78 JUMPI PUSH1 0x0 DUP1 REVERT JUMPDEST POP JUMP JUMPDEST PUSH1 0x0 DUP2 CALLDATALOAD SWAP1 POP PUSH2 0xC8A DUP2 PUSH2 0xC64 JUMP JUMPDEST SWAP3 SWAP2 POP POP JUMP JUMPDEST PUSH1 0x0 DUP1 PUSH1 0x40 DUP4 DUP6 SUB SLT ISZERO PUSH2 0xCA7 JUMPI PUSH2 0xCA6 PUSH2 0xC1A JUMP JUMPDEST JUMPDEST PUSH1 0x0 PUSH2 0xCB5 DUP6 DUP3 DUP7 ADD PUSH2 0xC45 JUMP JUMPDEST SWAP3 POP POP PUSH1 0x20 PUSH2 0xCC6 DUP6 DUP3 DUP7 ADD PUSH2 0xC7B JUMP JUMPDEST SWAP2 POP POP SWAP3 POP SWAP3 SWAP1 POP JUMP JUMPDEST PUSH2 0xCD9 DUP2 PUSH2 0xC5A JUMP JUMPDEST DUP3 MSTORE POP POP JUMP JUMPDEST PUSH1 0x0 PUSH1 0x20 DUP3 ADD SWAP1 POP PUSH2 0xCF4 PUSH1 0x0 DUP4 ADD DUP5 PUSH2 0xCD0 JUMP JUMPDEST SWAP3 SWAP2 POP POP JUMP JUMPDEST PUSH1 0x0 PUSH20 0xFFFFFFFFFFFFFFFFFFFFFFFFFFFFFFFFFFFFFFFF DUP3 AND SWAP1 POP SWAP2 SWAP1 POP JUMP JUMPDEST PUSH1 0x0 DUP2 SWAP1 POP SWAP2 SWAP1 POP JUMP JUMPDEST PUSH1 0x0 PUSH2 0xD3F PUSH2 0xD3A PUSH2 0xD35 DUP5 PUSH2 0xCFA JUMP JUMPDEST PUSH2 0xD1A JUMP JUMPDEST PUSH2 0xCFA JUMP JUMPDEST SWAP1 POP SWAP2 SWAP1 POP JUMP JUMPDEST PUSH1 0x0 PUSH2 0xD51 DUP3 PUSH2 0xD24 JUMP JUMPDEST SWAP1 POP SWAP2 SWAP1 POP JUMP JUMPDEST PUSH1 0x0 PUSH2 0xD63 DUP3 PUSH2 0xD46 JUMP JUMPDEST SWAP1 POP SWAP2 SWAP1 POP JUMP JUMPDEST PUSH2 0xD73 DUP2 PUSH2 0xD58 JUMP JUMPDEST DUP3 MSTORE POP POP JUMP JUMPDEST PUSH1 0x0 PUSH1 0x20 DUP3 ADD SWAP1 POP PUSH2 0xD8E PUSH1 0x0 DUP4 ADD DUP5 PUSH2 0xD6A JUMP JUMPDEST SWAP3 SWAP2 POP POP JUMP JUMPDEST PUSH1 0x0 DUP1 REVERT JUMPDEST PUSH1 0x0 DUP1 REVERT JUMPDEST PUSH1 0x0 DUP1 REVERT JUMPDEST PUSH1 0x0 DUP1 DUP4 PUSH1 0x1F DUP5 ADD SLT PUSH2 0xDB9 JUMPI PUSH2 0xDB8 PUSH2 0xD94 JUMP JUMPDEST JUMPDEST DUP3 CALLDATALOAD SWAP1 POP PUSH8 0xFFFFFFFFFFFFFFFF DUP2 GT ISZERO PUSH2 0xDD6 JUMPI PUSH2 0xDD5 PUSH2 0xD99 JUMP JUMPDEST JUMPDEST PUSH1 0x20 DUP4 ADD SWAP2 POP DUP4 PUSH1 0x1 DUP3 MUL DUP4 ADD GT ISZERO PUSH2 0xDF2 JUMPI PUSH2 0xDF1 PUSH2 0xD9E JUMP JUMPDEST JUMPDEST SWAP3 POP SWAP3 SWAP1 POP JUMP JUMPDEST PUSH1 0x0 PUSH2 0xE04 DUP3 PUSH2 0xCFA JUMP JUMPDEST SWAP1 POP SWAP2 SWAP1 POP JUMP JUMPDEST PUSH2 0xE14 DUP2 PUSH2 0xDF9 JUMP JUMPDEST DUP2 EQ PUSH2 0xE1F JUMPI PUSH1 0x0 DUP1 REVERT JUMPDEST POP JUMP JUMPDEST PUSH1 0x0 DUP2 CALLDATALOAD SWAP1 POP PUSH2 0xE31 DUP2 PUSH2 0xE0B JUMP JUMPDEST SWAP3 SWAP2 POP POP JUMP JUMPDEST PUSH1 0x0 DUP1 PUSH1 0x0 DUP1 PUSH1 0x0 DUP1 PUSH1 0xA0 DUP8 DUP10 SUB SLT ISZERO PUSH2 0xE54 JUMPI PUSH2 0xE53 PUSH2 0xC1A JUMP JUMPDEST JUMPDEST PUSH1 0x0 DUP8 ADD CALLDATALOAD PUSH8 0xFFFFFFFFFFFFFFFF DUP2 GT ISZERO PUSH2 0xE72 JUMPI PUSH2 0xE71 PUSH2 0xC1F JUMP JUMPDEST JUMPDEST PUSH2 0xE7E DUP10 DUP3 DUP11 ADD PUSH2 0xDA3 JUMP JUMPDEST SWAP7 POP SWAP7 POP POP PUSH1 0x20 PUSH2 0xE91 DUP10 DUP3 DUP11 ADD PUSH2 0xC7B JUMP JUMPDEST SWAP5 POP POP PUSH1 0x40 PUSH2 0xEA2 DUP10 DUP3 DUP11 ADD PUSH2 0xC7B JUMP JUMPDEST SWAP4 POP POP PUSH1 0x60 PUSH2 0xEB3 DUP10 DUP3 DUP11 ADD PUSH2 0xC7B JUMP JUMPDEST SWAP3 POP POP PUSH1 0x80 PUSH2 0xEC4 DUP10 DUP3 DUP11 ADD PUSH2 0xE22 JUMP JUMPDEST SWAP2 POP POP SWAP3 SWAP6 POP SWAP3 SWAP6 POP SWAP3 SWAP6 JUMP JUMPDEST PUSH2 0xEDA DUP2 PUSH2 0xC24 JUMP JUMPDEST DUP3 MSTORE POP POP JUMP JUMPDEST PUSH1 0x0 PUSH1 0x20 DUP3 ADD SWAP1 POP PUSH2 0xEF5 PUSH1 0x0 DUP4 ADD DUP5 PUSH2 0xED1 JUMP JUMPDEST SWAP3 SWAP2 POP POP JUMP JUMPDEST PUSH1 0x0 PUSH1 0x20 DUP3 DUP5 SUB SLT ISZERO PUSH2 0xF11 JUMPI PUSH2 0xF10 PUSH2 0xC1A JUMP JUMPDEST JUMPDEST PUSH1 0x0 PUSH2 0xF1F DUP5 DUP3 DUP6 ADD PUSH2 0xC45 JUMP JUMPDEST SWAP2 POP POP SWAP3 SWAP2 POP POP JUMP JUMPDEST PUSH1 0x0 DUP2 MLOAD SWAP1 POP SWAP2 SWAP1 POP JUMP JUMPDEST PUSH1 0x0 DUP3 DUP3 MSTORE PUSH1 0x20 DUP3 ADD SWAP1 POP SWAP3 SWAP2 POP POP JUMP JUMPDEST PUSH1 0x0 JUMPDEST DUP4 DUP2 LT ISZERO PUSH2 0xF62 JUMPI DUP1 DUP3 ADD MLOAD DUP2 DUP5 ADD MSTORE PUSH1 0x20 DUP2 ADD SWAP1 POP PUSH2 0xF47 JUMP JUMPDEST PUSH1 0x0 DUP5 DUP5 ADD MSTORE POP POP POP POP JUMP JUMPDEST PUSH1 0x0 PUSH1 0x1F NOT PUSH1 0x1F DUP4 ADD AND SWAP1 POP SWAP2 SWAP1 POP JUMP JUMPDEST PUSH1 0x0 PUSH2 0xF8A DUP3 PUSH2 0xF28 JUMP JUMPDEST PUSH2 0xF94 DUP2 DUP6 PUSH2 0xF33 JUMP JUMPDEST SWAP4 POP PUSH2 0xFA4 DUP2 DUP6 PUSH1 0x20 DUP7 ADD PUSH2 0xF44 JUMP JUMPDEST PUSH2 0xFAD DUP2 PUSH2 0xF6E JUMP JUMPDEST DUP5 ADD SWAP2 POP POP SWAP3 SWAP2 POP POP JUMP JUMPDEST PUSH2 0xFC1 DUP2 PUSH2 0xDF9 JUMP JUMPDEST DUP3 MSTORE POP POP JUMP JUMPDEST PUSH1 0x0 DUP2 ISZERO ISZERO SWAP1 POP SWAP2 SWAP1 POP JUMP JUMPDEST PUSH2 0xFDC DUP2 PUSH2 0xFC7 JUMP JUMPDEST DUP3 MSTORE POP POP JUMP JUMPDEST PUSH32 0x4E487B7100000000000000000000000000000000000000000000000000000000 PUSH1 0x0 MSTORE PUSH1 0x21 PUSH1 0x4 MSTORE PUSH1 0x24 PUSH1 0x0 REVERT JUMPDEST PUSH1 0x3 DUP2 LT PUSH2 0x1022 JUMPI PUSH2 0x1021 PUSH2 0xFE2 JUMP JUMPDEST JUMPDEST POP JUMP JUMPDEST PUSH1 0x0 DUP2 SWAP1 POP PUSH2 0x1033 DUP3 PUSH2 0x1011 JUMP JUMPDEST SWAP2 SWAP1 POP JUMP JUMPDEST PUSH1 0x0 PUSH2 0x1043 DUP3 PUSH2 0x1025 JUMP JUMPDEST SWAP1 POP SWAP2 SWAP1 POP JUMP JUMPDEST PUSH2 0x1053 DUP2 PUSH2 0x1038 JUMP JUMPDEST DUP3 MSTORE POP POP JUMP JUMPDEST PUSH1 0x0 PUSH1 0xC0 DUP3 ADD SWAP1 POP DUP2 DUP2 SUB PUSH1 0x0 DUP4 ADD MSTORE PUSH2 0x1073 DUP2 DUP10 PUSH2 0xF7F JUMP JUMPDEST SWAP1 POP PUSH2 0x1082 PUSH1 0x20 DUP4 ADD DUP9 PUSH2 0xCD0 JUMP JUMPDEST PUSH2 0x108F PUSH1 0x40 DUP4 ADD DUP8 PUSH2 0xFB8 JUMP JUMPDEST PUSH2 0x109C PUSH1 0x60 DUP4 ADD DUP7 PUSH2 0xFD3 JUMP JUMPDEST PUSH2 0x10A9 PUSH1 0x80 DUP4 ADD DUP6 PUSH2 0xCD0 JUMP JUMPDEST PUSH2 0x10B6 PUSH1 0xA0 DUP4 ADD DUP5 PUSH2 0x104A JUMP JUMPDEST SWAP8 SWAP7 POP POP POP POP POP POP POP JUMP JUMPDEST PUSH1 0x0 DUP1 DUP4 PUSH1 0x1F DUP5 ADD SLT PUSH2 0x10D7 JUMPI PUSH2 0x10D6 PUSH2 0xD94 JUMP JUMPDEST JUMPDEST DUP3 CALLDATALOAD SWAP1 POP PUSH8 0xFFFFFFFFFFFFFFFF DUP2 GT ISZERO PUSH2 0x10F4 JUMPI PUSH2 0x10F3 PUSH2 0xD99 JUMP JUMPDEST JUMPDEST PUSH1 0x20 DUP4 ADD SWAP2 POP DUP4 PUSH1 0x20 DUP3 MUL DUP4 ADD GT ISZERO PUSH2 0x1110 JUMPI PUSH2 0x110F PUSH2 0xD9E JUMP JUMPDEST JUMPDEST SWAP3 POP SWAP3 SWAP1 POP JUMP JUMPDEST PUSH1 0x0 DUP1 PUSH1 0x0 DUP1 PUSH1 0x0 DUP1 PUSH1 0x80 DUP8 DUP10 SUB SLT ISZERO PUSH2 0x1134 JUMPI PUSH2 0x1133 PUSH2 0xC1A JUMP JUMPDEST JUMPDEST PUSH1 0x0 DUP8 ADD CALLDATALOAD PUSH8 0xFFFFFFFFFFFFFFFF DUP2 GT ISZERO PUSH2 0x1152 JUMPI PUSH2 0x1151 PUSH2 0xC1F JUMP JUMPDEST JUMPDEST PUSH2 0x115E DUP10 DUP3 DUP11 ADD PUSH2 0xDA3 JUMP JUMPDEST SWAP7 POP SWAP7 POP POP PUSH1 0x20 DUP8 ADD CALLDATALOAD PUSH8 0xFFFFFFFFFFFFFFFF DUP2 GT ISZERO PUSH2 0x1181 JUMPI PUSH2 0x1180 PUSH2 0xC1F JUMP JUMPDEST JUMPDEST PUSH2 0x118D DUP10 DUP3 DUP11 ADD PUSH2 0x10C1 JUMP JUMPDEST SWAP5 POP SWAP5 POP POP PUSH1 0x40 PUSH2 0x11A0 DUP10 DUP3 DUP11 ADD PUSH2 0xC7B JUMP JUMPDEST SWAP3 POP POP PUSH1 0x60 PUSH2 0x11B1 DUP10 DUP3 DUP11 ADD PUSH2 0xE22 JUMP JUMPDEST SWAP2 POP POP SWAP3 SWAP6 POP SWAP3 SWAP6 POP SWAP3 SWAP6 JUMP JUMPDEST PUSH32 0x4F6E6C79206F7261636C652063616E207265736F6C7665000000000000000000 PUSH1 0x0 DUP3 ADD MSTORE POP JUMP JUMPDEST PUSH1 0x0 PUSH2 0x11F4 PUSH1 0x17 DUP4 PUSH2 0xF33 JUMP JUMPDEST SWAP2 POP PUSH2 0x11FF DUP3 PUSH2 0x11BE JUMP JUMPDEST PUSH1 0x20 DUP3 ADD SWAP1 POP SWAP2 SWAP1 POP JUMP JUMPDEST PUSH1 0x0 PUSH1 0x20 DUP3 ADD SWAP1 POP DUP2 DUP2 SUB PUSH1 0x0 DUP4 ADD MSTORE PUSH2 0x1223 DUP2 PUSH2 0x11E7 JUMP JUMPDEST SWAP1 POP SWAP2 SWAP1 POP JUMP JUMPDEST PUSH32 0x416C7265616479207265736F6C76656400000000000000000000000000000000 PUSH1 0x0 DUP3 ADD MSTORE POP JUMP JUMPDEST PUSH1 0x0 PUSH2 0x1260 PUSH1 0x10 DUP4 PUSH2 0xF33 JUMP JUMPDEST SWAP2 POP PUSH2 0x126B DUP3 PUSH2 0x122A JUMP JUMPDEST PUSH1 0x20 DUP3 ADD SWAP1 POP SWAP2 SWAP1 POP JUMP JUMPDEST PUSH1 0x0 PUSH1 0x20 DUP3 ADD SWAP1 POP DUP2 DUP2 SUB PUSH1 0x0 DUP4 ADD MSTORE PUSH2 0x128F DUP2 PUSH2 0x1253 JUMP JUMPDEST SWAP1 POP SWAP2 SWAP1 POP JUMP JUMPDEST PUSH32 0x496E76616C6964206F7574636F6D650000000000000000000000000000000000 PUSH1 0x0 DUP3 ADD MSTORE POP JUMP JUMPDEST PUSH1 0x0 PUSH2 0x12CC PUSH1 0xF DUP4 PUSH2 0xF33 JUMP JUMPDEST SWAP2 POP PUSH2 0x12D7 DUP3 PUSH2 0x1296 JUMP JUMPDEST PUSH1 0x20 DUP3 ADD SWAP1 POP SWAP2 SWAP1 POP JUMP JUMPDEST PUSH1 0x0 PUSH1 0x20 DUP3 ADD SWAP1 POP DUP2 DUP2 SUB PUSH1 0x0 DUP4 ADD MSTORE PUSH2 0x12FB DUP2 PUSH2 0x12BF JUMP JUMPDEST SWAP1 POP SWAP2 SWAP1 POP JUMP JUMPDEST PUSH1 0x0 DUP2 SWAP1 POP SWAP3 SWAP2 POP POP JUMP JUMPDEST DUP3 DUP2 DUP4 CALLDATACOPY PUSH1 0x0 DUP4 DUP4 ADD MSTORE POP POP POP JUMP JUMPDEST PUSH1 0x0 PUSH2 0x1328 DUP4 DUP6 PUSH2 0x1302 JUMP JUMPDEST SWAP4 POP PUSH2 0x1335 DUP4 DUP6 DUP5 PUSH2 0x130D JUMP JUMPDEST DUP3 DUP5 ADD SWAP1 POP SWAP4 SWAP3 POP POP POP JUMP JUMPDEST PUSH1 0x0 DUP2 SWAP1 POP SWAP2 SWAP1 POP JUMP JUMPDEST PUSH2 0x135C PUSH2 0x1357 DUP3 PUSH2 0xC5A JUMP JUMPDEST PUSH2 0x1341 JUMP JUMPDEST DUP3 MSTORE POP POP JUMP JUMPDEST PUSH1 0x0 DUP2 PUSH1 0x60 SHL SWAP1 POP SWAP2 SWAP1 POP JUMP JUMPDEST PUSH1 0x0 PUSH2 0x137A DUP3 PUSH2 0x1362 JUMP JUMPDEST SWAP1 POP SWAP2 SWAP1 POP JUMP JUMPDEST PUSH1 0x0 PUSH2 0x138C DUP3 PUSH2 0x136F JUMP JUMPDEST SWAP1 POP SWAP2 SWAP1 POP JUMP JUMPDEST PUSH2 0x13A4 PUSH2 0x139F DUP3 PUSH2 0xDF9 JUMP JUMPDEST PUSH2 0x1381 JUMP JUMPDEST DUP3 MSTORE POP POP JUMP JUMPDEST PUSH1 0x0 PUSH2 0x13B7 DUP3 DUP7 DUP9 PUSH2 0x131C JUMP JUMPDEST SWAP2 POP PUSH2 0x13C3 DUP3 DUP6 PUSH2 0x134B JUMP JUMPDEST PUSH1 0x20 DUP3 ADD SWAP2 POP PUSH2 0x13D3 DUP3 DUP5 PUSH2 0x1393 JUMP JUMPDEST PUSH1 0x14 DUP3 ADD SWAP2 POP DUP2 SWAP1 POP SWAP6 SWAP5 POP POP POP POP POP JUMP JUMPDEST PUSH32 0x4E487B7100000000000000000000000000000000000000000000000000000000 PUSH1 0x0 MSTORE PUSH1 0x41 PUSH1 0x4 MSTORE PUSH1 0x24 PUSH1 0x0 REVERT JUMPDEST PUSH32 0x42656C6F77200000000000000000000000000000000000000000000000000000 PUSH1 0x0 DUP3 ADD MSTORE POP JUMP JUMPDEST PUSH1 0x0 PUSH2 0x144A PUSH1 0x6 DUP4 PUSH2 0x1302 JUMP JUMPDEST SWAP2 POP PUSH2 0x1455 DUP3 PUSH2 0x1414 JUMP JUMPDEST PUSH1 0x6 DUP3 ADD SWAP1 POP SWAP2 SWAP1 POP JUMP JUMPDEST PUSH1 0x0 PUSH2 0x146B DUP3 PUSH2 0xF28 JUMP JUMPDEST PUSH2 0x1475 DUP2 DUP6 PUSH2 0x1302 JUMP JUMPDEST SWAP4 POP PUSH2 0x1485 DUP2 DUP6 PUSH1 0x20 DUP7 ADD PUSH2 0xF44 JUMP JUMPDEST DUP1 DUP5 ADD SWAP2 POP POP SWAP3 SWAP2 POP POP JUMP JUMPDEST PUSH1 0x0 PUSH2 0x149C DUP3 PUSH2 0x143D JUMP JUMPDEST SWAP2 POP PUSH2 0x14A8 DUP3 DUP5 PUSH2 0x1460 JUMP JUMPDEST SWAP2 POP DUP2 SWAP1 POP SWAP3 SWAP2 POP POP JUMP JUMPDEST PUSH32 0x4E487B7100000000000000000000000000000000000000000000000000000000 PUSH1 0x0 MSTORE PUSH1 0x32 PUSH1 0x4 MSTORE PUSH1 0x24 PUSH1 0x0 REVERT JUMPDEST PUSH32 0x41626F7665200000000000000000000000000000000000000000000000000000 PUSH1 0x0 DUP3 ADD MSTORE POP JUMP JUMPDEST PUSH1 0x0 PUSH2 0x1518 PUSH1 0x6 DUP4 PUSH2 0x1302 JUMP JUMPDEST SWAP2 POP PUSH2 0x1523 DUP3 PUSH2 0x14E2 JUMP JUMPDEST PUSH1 0x6 DUP3 ADD SWAP1 POP SWAP2 SWAP1 POP JUMP JUMPDEST PUSH1 0x0 PUSH2 0x1539 DUP3 PUSH2 0x150B JUMP JUMPDEST SWAP2 POP PUSH2 0x1545 DUP3 DUP5 PUSH2 0x1460 JUMP JUMPDEST SWAP2 POP DUP2 SWAP1 POP SWAP3 SWAP2 POP POP JUMP JUMPDEST PUSH32 0x4E487B7100000000000000000000000000000000000000000000000000000000 PUSH1 0x0 MSTORE PUSH1 0x22 PUSH1 0x4 MSTORE PUSH1 0x24 PUSH1 0x0 REVERT JUMPDEST PUSH1 0x0 PUSH1 0x2 DUP3 DIV SWAP1 POP PUSH1 0x1 DUP3 AND DUP1 PUSH2 0x1597 JUMPI PUSH1 0x7F DUP3 AND SWAP2 POP JUMPDEST PUSH1 0x20 DUP3 LT DUP2 SUB PUSH2 0x15AA JUMPI PUSH2 0x15A9 PUSH2 0x1550 JUMP JUMPDEST JUMPDEST POP SWAP2 SWAP1 POP JUMP JUMPDEST PUSH1 0x0 DUP2 SWAP1 POP DUP2 PUSH1 0x0 MSTORE PUSH1 0x20 PUSH1 0x0 KECCAK256 SWAP1 POP SWAP2 SWAP1 POP JUMP JUMPDEST PUSH1 0x0 PUSH1 0x20 PUSH1 0x1F DUP4 ADD DIV SWAP1 POP SWAP2 SWAP1 POP JUMP JUMPDEST PUSH1 0x0 DUP3 DUP3 SHL SWAP1 POP SWAP3 SWAP2 POP POP JUMP JUMPDEST PUSH1 0x0 PUSH1 0x8 DUP4 MUL PUSH2 0x1612 PUSH32 0xFFFFFFFFFFFFFFFFFFFFFFFFFFFFFFFFFFFFFFFFFFFFFFFFFFFFFFFFFFFFFFFF DUP3 PUSH2 0x15D5 JUMP JUMPDEST PUSH2 0x161C DUP7 DUP4 PUSH2 0x15D5 JUMP JUMPDEST SWAP6 POP DUP1 NOT DUP5 AND SWAP4 POP DUP1 DUP7 AND DUP5 OR SWAP3 POP POP POP SWAP4 SWAP3 POP POP POP JUMP JUMPDEST PUSH1 0x0 PUSH2 0x164F PUSH2 0x164A PUSH2 0x1645 DUP5 PUSH2 0xC5A JUMP JUMPDEST PUSH2 0xD1A JUMP JUMPDEST PUSH2 0xC5A JUMP JUMPDEST SWAP1 POP SWAP2 SWAP1 POP JUMP JUMPDEST PUSH1 0x0 DUP2 SWAP1 POP SWAP2 SWAP1 POP JUMP JUMPDEST PUSH2 0x1669 DUP4 PUSH2 0x1634 JUMP JUMPDEST PUSH2 0x167D PUSH2 0x1675 DUP3 PUSH2 0x1656 JUMP JUMPDEST DUP5 DUP5 SLOAD PUSH2 0x15E2 JUMP JUMPDEST DUP3 SSTORE POP POP POP POP JUMP JUMPDEST PUSH1 0x0 SWAP1 JUMP JUMPDEST PUSH2 0x1692 PUSH2 0x1685 JUMP JUMPDEST PUSH2 0x169D DUP2 DUP5 DUP5 PUSH2 0x1660 JUMP JUMPDEST POP POP POP JUMP JUMPDEST JUMPDEST DUP2 DUP2 LT ISZERO PUSH2 0x16C1 JUMPI PUSH2 0x16B6 PUSH1 0x0 DUP3 PUSH2 0x168A JUMP JUMPDEST PUSH1 0x1 DUP2 ADD SWAP1 POP PUSH2 0x16A3 JUMP JUMPDEST POP POP JUMP JUMPDEST PUSH1 0x1F DUP3 GT ISZERO PUSH2 0x1706 JUMPI PUSH2 0x16D7 DUP2 PUSH2 0x15B0 JUMP JUMPDEST PUSH2 0x16E0 DUP5 PUSH2 0x15C5 JUMP JUMPDEST DUP2 ADD PUSH1 0x20 DUP6 LT ISZERO PUSH2 0x16EF JUMPI DUP2 SWAP1 POP JUMPDEST PUSH2 0x1703 PUSH2 0x16FB DUP6 PUSH2 0x15C5 JUMP JUMPDEST DUP4 ADD DUP3 PUSH2 0x16A2 JUMP JUMPDEST POP POP JUMPDEST POP POP POP JUMP JUMPDEST PUSH1 0x0 DUP3 DUP3 SHR SWAP1 POP SWAP3 SWAP2 POP POP JUMP JUMPDEST PUSH1 0x0 PUSH2 0x1729 PUSH1 0x0 NOT DUP5 PUSH1 0x8 MUL PUSH2 0x170B JUMP JUMPDEST NOT DUP1 DUP4 AND SWAP2 POP POP SWAP3 SWAP2 POP POP JUMP JUMPDEST PUSH1 0x0 PUSH2 0x1742 DUP4 DUP4 PUSH2 0x1718 JUMP JUMPDEST SWAP2 POP DUP3 PUSH1 0x2 MUL DUP3 OR SWAP1 POP SWAP3 SWAP2 POP POP JUMP JUMPDEST PUSH2 0x175B DUP3 PUSH2 0xF28 JUMP JUMPDEST PUSH8 0xFFFFFFFFFFFFFFFF DUP2 GT ISZERO PUSH2 0x1774 JUMPI PUSH2 0x1773 PUSH2 0x13E5 JUMP JUMPDEST JUMPDEST PUSH2 0x177E DUP3 SLOAD PUSH2 0x157F JUMP JUMPDEST PUSH2 0x1789 DUP3 DUP3 DUP6 PUSH2 0x16C5 JUMP JUMPDEST PUSH1 0x0 PUSH1 0x20 SWAP1 POP PUSH1 0x1F DUP4 GT PUSH1 0x1 DUP2 EQ PUSH2 0x17BC JUMPI PUSH1 0x0 DUP5 ISZERO PUSH2 0x17AA JUMPI DUP3 DUP8 ADD MLOAD SWAP1 POP JUMPDEST PUSH2 0x17B4 DUP6 DUP3 PUSH2 0x1736 JUMP JUMPDEST DUP7 SSTORE POP PUSH2 0x181C JUMP JUMPDEST PUSH1 0x1F NOT DUP5 AND PUSH2 0x17CA DUP7 PUSH2 0x15B0 JUMP JUMPDEST PUSH1 0x0 JUMPDEST DUP3 DUP2 LT ISZERO PUSH2 0x17F2 JUMPI DUP5 DUP10 ADD MLOAD DUP3 SSTORE PUSH1 0x1 DUP3 ADD SWAP2 POP PUSH1 0x20 DUP6 ADD SWAP5 POP PUSH1 0x20 DUP2 ADD SWAP1 POP PUSH2 0x17CD JUMP JUMPDEST DUP7 DUP4 LT ISZERO PUSH2 0x180F JUMPI DUP5 DUP10 ADD MLOAD PUSH2 0x180B PUSH1 0x1F DUP10 AND DUP3 PUSH2 0x1718 JUMP JUMPDEST DUP4 SSTORE POP JUMPDEST PUSH1 0x1 PUSH1 0x2 DUP9 MUL ADD DUP9 SSTORE POP POP POP JUMPDEST POP POP POP POP POP POP JUMP JUMPDEST PUSH1 0x0 PUSH2 0x1830 DUP4 DUP6 PUSH2 0xF33 JUMP JUMPDEST SWAP4 POP PUSH2 0x183D DUP4 DUP6 DUP5 PUSH2 0x130D JUMP JUMPDEST PUSH2 0x1846 DUP4 PUSH2 0xF6E JUMP JUMPDEST DUP5 ADD SWAP1 POP SWAP4 SWAP3 POP POP POP JUMP JUMPDEST PUSH1 0x0 DUP2 SWAP1 POP SWAP2 SWAP1 POP JUMP JUMPDEST PUSH1 0x0 PUSH2 0x1876 PUSH2 0x1871 PUSH2 0x186C DUP5 PUSH2 0x1851 JUMP JUMPDEST PUSH2 0xD1A JUMP JUMPDEST PUSH2 0xC5A JUMP JUMPDEST SWAP1 POP SWAP2 SWAP1 POP JUMP JUMPDEST PUSH2 0x1886 DUP2 PUSH2 0x185B JUMP JUMPDEST DUP3 MSTORE POP POP JUMP JUMPDEST PUSH1 0x0 PUSH1 0x60 DUP3 ADD SWAP1 POP DUP2 DUP2 SUB PUSH1 0x0 DUP4 ADD MSTORE PUSH2 0x18A7 DUP2 DUP7 DUP9 PUSH2 0x1824 JUMP JUMPDEST SWAP1 POP PUSH2 0x18B6 PUSH1 0x20 DUP4 ADD DUP6 PUSH2 0x104A JUMP JUMPDEST PUSH2 0x18C3 PUSH1 0x40 DUP4 ADD DUP5 PUSH2 0x187D JUMP JUMPDEST SWAP6 SWAP5 POP POP POP POP POP JUMP JUMPDEST PUSH32 0x43617465676F726963616C206D61726B657473206E65656420332B206F757463 PUSH1 0x0 DUP3 ADD MSTORE PUSH32 0x6F6D657300000000000000000000000000000000000000000000000000000000 PUSH1 0x20 DUP3 ADD MSTORE POP JUMP JUMPDEST PUSH1 0x0 PUSH2 0x1928 PUSH1 0x24 DUP4 PUSH2 0xF33 JUMP JUMPDEST SWAP2 POP PUSH2 0x1933 DUP3 PUSH2 0x18CC JUMP JUMPDEST PUSH1 0x40 DUP3 ADD SWAP1 POP SWAP2 SWAP1 POP JUMP JUMPDEST PUSH1 0x0 PUSH1 0x20 DUP3 ADD SWAP1 POP DUP2 DUP2 SUB PUSH1 0x0 DUP4 ADD MSTORE PUSH2 0x1957 DUP2 PUSH2 0x191B JUMP JUMPDEST SWAP1 POP SWAP2 SWAP1 POP JUMP JUMPDEST PUSH2 0x1967 DUP3 PUSH2 0xF6E JUMP JUMPDEST DUP2 ADD DUP2 DUP2 LT PUSH8 0xFFFFFFFFFFFFFFFF DUP3 GT OR ISZERO PUSH2 0x1986 JUMPI PUSH2 0x1985 PUSH2 0x13E5 JUMP JUMPDEST JUMPDEST DUP1 PUSH1 0x40 MSTORE POP POP POP JUMP JUMPDEST PUSH1 0x0 PUSH2 0x1999 PUSH2 0xC10 JUMP JUMPDEST SWAP1 POP PUSH2 0x19A5 DUP3 DUP3 PUSH2 0x195E JUMP JUMPDEST SWAP2 SWAP1 POP JUMP JUMPDEST PUSH1 0x0 PUSH8 0xFFFFFFFFFFFFFFFF DUP3 GT ISZERO PUSH2 0x19C5 JUMPI PUSH2 0x19C4 PUSH2 0x13E5 JUMP JUMPDEST JUMPDEST PUSH1 0x20 DUP3 MUL SWAP1 POP PUSH1 0x20 DUP2 ADD SWAP1 POP SWAP2 SWAP1 POP JUMP JUMPDEST PUSH1 0x0 DUP1 REVERT JUMPDEST PUSH1 0x0 PUSH8 0xFFFFFFFFFFFFFFFF DUP3 GT ISZERO PUSH2 0x19F6 JUMPI PUSH2 0x19F5 PUSH2 0x13E5 JUMP JUMPDEST JUMPDEST PUSH2 0x19FF DUP3 PUSH2 0xF6E JUMP JUMPDEST SWAP1 POP PUSH1 0x20 DUP2 ADD SWAP1 POP SWAP2 SWAP1 POP JUMP JUMPDEST PUSH1 0x0 PUSH2 0x1A1F PUSH2 0x1A1A DUP5 PUSH2 0x19DB JUMP JUMPDEST PUSH2 0x198F JUMP JUMPDEST SWAP1 POP DUP3 DUP2 MSTORE PUSH1 0x20 DUP2 ADD DUP5 DUP5 DUP5 ADD GT ISZERO PUSH2 0x1A3B JUMPI PUSH2 0x1A3A PUSH2 0x19D6 JUMP JUMPDEST JUMPDEST PUSH2 0x1A46 DUP5 DUP3 DUP6 PUSH2 0x130D JUMP JUMPDEST POP SWAP4 SWAP3 POP POP POP JUMP JUMPDEST PUSH1 0x0 DUP3 PUSH1 0x1F DUP4 ADD SLT PUSH2 0x1A63 JUMPI PUSH2 0x1A62 PUSH2 0xD94 JUMP JUMPDEST JUMPDEST DUP2 CALLDATALOAD PUSH2 0x1A73 DUP5 DUP3 PUSH1 0x20 DUP7 ADD PUSH2 0x1A0C JUMP JUMPDEST SWAP2 POP POP SWAP3 SWAP2 POP POP JUMP JUMPDEST PUSH1 0x0 PUSH2 0x1A8F PUSH2 0x1A8A DUP5 PUSH2 0x19AA JUMP JUMPDEST PUSH2 0x198F JUMP JUMPDEST SWAP1 POP DUP1 DUP4 DUP3 MSTORE PUSH1 0x20 DUP3 ADD SWAP1 POP PUSH1 0x20 DUP5 MUL DUP4 ADD DUP6 DUP2 GT ISZERO PUSH2 0x1AB2 JUMPI PUSH2 0x1AB1 PUSH2 0xD9E JUMP JUMPDEST JUMPDEST DUP4 JUMPDEST DUP2 DUP2 LT ISZERO PUSH2 0x1AF9 JUMPI DUP1 CALLDATALOAD PUSH8 0xFFFFFFFFFFFFFFFF DUP2 GT ISZERO PUSH2 0x1AD7 JUMPI PUSH2 0x1AD6 PUSH2 0xD94 JUMP JUMPDEST JUMPDEST DUP1 DUP7 ADD PUSH2 0x1AE4 DUP10 DUP3 PUSH2 0x1A4E JUMP JUMPDEST DUP6 MSTORE PUSH1 0x20 DUP6 ADD SWAP5 POP POP POP PUSH1 0x20 DUP2 ADD SWAP1 POP PUSH2 0x1AB4 JUMP JUMPDEST POP POP POP SWAP4 SWAP3 POP POP POP JUMP JUMPDEST PUSH1 0x0 PUSH2 0x1B10 CALLDATASIZE DUP5 DUP5 PUSH2 0x1A7C JUMP JUMPDEST SWAP1 POP SWAP3 SWAP2 POP POP JUMP JUMPDEST PUSH1 0x0 PUSH1 0x60 DUP3 ADD SWAP1 POP DUP2 DUP2 SUB PUSH1 0x0 DUP4 ADD MSTORE PUSH2 0x1B33 DUP2 DUP7 DUP9 PUSH2 0x1824 JUMP JUMPDEST SWAP1 POP PUSH2 0x1B42 PUSH1 0x20 DUP4 ADD DUP6 PUSH2 0x104A JUMP JUMPDEST PUSH2 0x1B4F PUSH1 0x40 DUP4 ADD DUP5 PUSH2 0xCD0 JUMP JUMPDEST SWAP6 SWAP5 POP POP POP POP POP JUMP JUMPDEST PUSH32 0x4E487B7100000000000000000000000000000000000000000000000000000000 PUSH1 0x0 MSTORE PUSH1 0x11 PUSH1 0x4 MSTORE PUSH1 0x24 PUSH1 0x0 REVERT JUMPDEST PUSH1 0x0 PUSH2 0x1B92 DUP3 PUSH2 0xC5A JUMP JUMPDEST SWAP2 POP PUSH32 0xFFFFFFFFFFFFFFFFFFFFFFFFFFFFFFFFFFFFFFFFFFFFFFFFFFFFFFFFFFFFFFFF DUP3 SUB PUSH2 0x1BC4 JUMPI PUSH2 0x1BC3 PUSH2 0x1B58 JUMP JUMPDEST JUMPDEST PUSH1 0x1 DUP3 ADD SWAP1 POP SWAP2 SWAP1 POP JUMP JUMPDEST PUSH32 0x4E487B7100000000000000000000000000000000000000000000000000000000 PUSH1 0x0 MSTORE PUSH1 0x12 PUSH1 0x4 MSTORE PUSH1 0x24 PUSH1 0x0 REVERT JUMPDEST PUSH1 0x0 PUSH2 0x1C09 DUP3 PUSH2 0xC5A JUMP JUMPDEST SWAP2 POP PUSH2 0x1C14 DUP4 PUSH2 0xC5A JUMP JUMPDEST SWAP3 POP DUP3 PUSH2 0x1C24 JUMPI PUSH2 0x1C23 PUSH2 0x1BCF JUMP JUMPDEST JUMPDEST DUP3 DUP3 DIV SWAP1 POP SWAP3 SWAP2 POP POP JUMP JUMPDEST PUSH1 0x0 PUSH2 0x1C3A DUP3 PUSH2 0xC5A JUMP JUMPDEST SWAP2 POP PUSH2 0x1C45 DUP4 PUSH2 0xC5A JUMP JUMPDEST SWAP3 POP DUP3 DUP3 SUB SWAP1 POP DUP2 DUP2 GT ISZERO PUSH2 0x1C5D JUMPI PUSH2 0x1C5C PUSH2 0x1B58 JUMP JUMPDEST JUMPDEST SWAP3 SWAP2 POP POP JUMP JUMPDEST PUSH1 0x0 PUSH2 0x1C6E DUP3 PUSH2 0xC5A JUMP JUMPDEST SWAP2 POP PUSH2 0x1C79 DUP4 PUSH2 0xC5A JUMP JUMPDEST SWAP3 POP DUP3 DUP3 MUL PUSH2 0x1C87 DUP2 PUSH2 0xC5A JUMP JUMPDEST SWAP2 POP DUP3 DUP3 DIV DUP5 EQ DUP4 ISZERO OR PUSH2 0x1C9E JUMPI PUSH2 0x1C9D PUSH2 0x1B58 JUMP JUMPDEST JUMPDEST POP SWAP3 SWAP2 POP POP JUMP JUMPDEST PUSH1 0x0 PUSH1 0xFF DUP3 AND SWAP1 POP SWAP2 SWAP1 POP JUMP JUMPDEST PUSH1 0x0 PUSH2 0x1CBD DUP3 PUSH2 0x1CA5 JUMP JUMPDEST SWAP2 POP PUSH2 0x1CC8 DUP4 PUSH2 0x1CA5 JUMP JUMPDEST SWAP3 POP DUP3 DUP3 ADD SWAP1 POP PUSH1 0xFF DUP2 GT ISZERO PUSH2 0x1CE1 JUMPI PUSH2 0x1CE0 PUSH2 0x1B58 JUMP JUMPDEST JUMPDEST SWAP3 SWAP2 POP POP JUMP INVALID LOG2 PUSH5 0x6970667358 0x22 SLT KECCAK256 EXTCODESIZE PUSH10 0x474967D781A2D46165BD 0xBC EXTCODEHASH JUMP 0xC8 0xF8 0xD0 DUP7 OR SWAP3 PUSH4 0xCE9EBB75 SHR ADDMOD 0x21 CREATE2 0xE2 PUSH29 0x64736F6C63430008140033000000000000000000000000000000000000 "},"methodIdentifiers":{"conditionalTokens()":"5bd9e299","createCategoricalMarket(string,string[],uint256,address)":"87ffafd1","createScalarMarket(string,uint256,uint256,uint256,address)":"644ff8a0","markets(bytes32)":"7564912b","outcomePrices(bytes32,uint256)":"0fe5f3be","resolveMarket(bytes32,uint256)":"590f4cb3"}}}}}