{
  "_format": "hh-sol-artifact-1",
  "contractName": "MarketFactory",
  "sourceName": "contracts/MarketFactory.sol",
  "abi": [
    {
      "inputs": [
        {
          "internalType": "address",
          "name": "_conditionalTokens",
          "type": "address"
        }
      ],
      "stateMutability": "nonpayable",
      "type": "constructor"
    },
    {
      "anonymous": false,
      "inputs": [
        {
          "indexed": true,
          "internalType": "bytes32",
          "name": "marketId",
          "type": "bytes32"
        },
        {
          "indexed": false,
          "internalType": "string",
          "name": "question",
          "type": "string"
        },
        {
          "indexed": true,
          "internalType": "address",
          "name": "creator",
          "type": "address"
        },
        {
          "indexed": false,
          "internalType": "address",
          "name": "oracle",
          "type": "address"
        },
        {
          "indexed": false,
          "internalType": "uint256",
          "name": "endTime",
          "type": "uint256"
        },
        {
          "indexed": false,
          "internalType": "bytes32",
          "name": "conditionId",
          "type": "bytes32"
        }
      ],
      "name": "MarketCreated",
      "type": "event"
    },
    {
      "inputs": [],
      "name": "conditionalTokens",
      "outputs": [
        {
          "internalType": "address",
          "name": "",
          "type": "address"
        }
      ],
      "stateMutability": "view",
      "type": "function"
    },
    {
      "inputs": [
        {
          "internalType": "string",
          "name": "question",
          "type": "string"
        },
        {
          "internalType": "uint256",
          "name": "endTime",
          "type": "uint256"
        },
        {
          "internalType": "uint256",
          "name": "numOutcomes",
          "type": "uint256"
        },
        {
          "internalType": "address",
          "name": "oracle",
          "type": "address"
        }
      ],
      "name": "createMarket",
      "outputs": [
        {
          "internalType": "bytes32",
          "name": "conditionId",
          "type": "bytes32"
        }
      ],
      "stateMutability": "nonpayable",
      "type": "function"
    }
  ],
  "bytecode": "0x608060405234801561001057600080fd5b5060405161067e38038061067e833981810160405281019061003291906100db565b806000806101000a81548173ffffffffffffffffffffffffffffffffffffffff021916908373ffffffffffffffffffffffffffffffffffffffff16021790555050610108565b600080fd5b600073ffffffffffffffffffffffffffffffffffffffff82169050919050565b60006100a88261007d565b9050919050565b6100b88161009d565b81146100c357600080fd5b50565b6000815190506100d5816100af565b92915050565b6000602082840312156100f1576100f0610078565b5b60006100ff848285016100c6565b91505092915050565b610567806101176000396000f3fe608060405234801561001057600080fd5b50600436106100365760003560e01c80635bd9e2991461003b5780638205ebcb14610059575b600080fd5b610043610089565b60405161005091906101ad565b60405180910390f35b610073600480360381019061006e9190610299565b6100ad565b604051610080919061033a565b60405180910390f35b60008054906101000a900473ffffffffffffffffffffffffffffffffffffffff1681565b6000818686856040516020016100c694939291906103fd565b604051602081830303815290604052805190602001209050600081426040516020016100f3929190610459565b6040516020818303038152906040528051906020012090503373ffffffffffffffffffffffffffffffffffffffff16817fad0c6ce3c3ef75bf56f311d4b3096e6f63feebd7bf0f3ee8cea49032c39f3b258989878a8860405161015a9594939291906104e3565b60405180910390a35095945050505050565b600073ffffffffffffffffffffffffffffffffffffffff82169050919050565b60006101978261016c565b9050919050565b6101a78161018c565b82525050565b60006020820190506101c2600083018461019e565b92915050565b600080fd5b600080fd5b600080fd5b600080fd5b600080fd5b60008083601f8401126101f7576101f66101d2565b5b8235905067ffffffffffffffff811115610214576102136101d7565b5b6020830191508360018202830111156102305761022f6101dc565b5b9250929050565b6000819050919050565b61024a81610237565b811461025557600080fd5b50565b60008135905061026781610241565b92915050565b6102768161018c565b811461028157600080fd5b50565b6000813590506102938161026d565b92915050565b6000806000806000608086880312156102b5576102b46101c8565b5b600086013567ffffffffffffffff8111156102d3576102d26101cd565b5b6102df888289016101e1565b955095505060206102f288828901610258565b935050604061030388828901610258565b925050606061031488828901610284565b9150509295509295909350565b6000819050919050565b61033481610321565b82525050565b600060208201905061034f600083018461032b565b92915050565b60008160601b9050919050565b600061036d82610355565b9050919050565b600061037f82610362565b9050919050565b6103976103928261018c565b610374565b82525050565b600081905092915050565b82818337600083830152505050565b60006103c3838561039d565b93506103d08385846103a8565b82840190509392505050565b6000819050919050565b6103f76103f282610237565b6103dc565b82525050565b60006104098287610386565b60148201915061041a8285876103b7565b915061042682846103e6565b60208201915081905095945050505050565b6000819050919050565b61045361044e82610321565b610438565b82525050565b60006104658285610442565b60208201915061047582846103e6565b6020820191508190509392505050565b600082825260208201905092915050565b6000601f19601f8301169050919050565b60006104b38385610485565b93506104c08385846103a8565b6104c983610496565b840190509392505050565b6104dd81610237565b82525050565b600060808201905081810360008301526104fe8187896104a7565b905061050d602083018661019e565b61051a60408301856104d4565b610527606083018461032b565b969550505050505056fea2646970667358221220b90b3d1bcbef7fc74a0607ee2c235b1f1a8be78040da623760c1ca7444681d7764736f6c63430008140033",
  "linkReferences": {},
  "deployedLinkReferences": {}
}