{
  "_format": "hh-sol-artifact-1",
  "contractName": "MultiOutcomeMarket",
  "sourceName": "contracts/MultiOutcomeMarket.sol",
  "abi": [
    {
      "inputs": [
        {
          "internalType": "address",
          "name": "_conditionalTokens",
          "type": "address"
        }
      ],
      "stateMutability": "nonpayable",
      "type": "constructor"
    },
    {
      "anonymous": false,
      "inputs": [
        {
          "indexed": true,
          "internalType": "bytes32",
          "name": "marketId",
          "type": "bytes32"
        },
        {
          "indexed": false,
          "internalType": "string",
          "name": "question",
          "type": "string"
        },
        {
          "indexed": false,
          "internalType": "enum MultiOutcomeMarket.MarketType",
          "name": "marketType",
          "type": "uint8"
        },
        {
          "indexed": false,
          "internalType": "uint256",
          "name": "outcomeCount",
          "type": "uint256"
        }
      ],
      "name": "MarketCreated",
      "type": "event"
    },
    {
      "anonymous": false,
      "inputs": [
        {
          "indexed": true,
          "internalType": "bytes32",
          "name": "marketId",
          "type": "bytes32"
        },
        {
          "indexed": false,
          "internalType": "uint256",
          "name": "winningOutcome",
          "type": "uint256"
        }
      ],
      "name": "MarketResolved",
      "type": "event"
    },
    {
      "inputs": [],
      "name": "conditionalTokens",
      "outputs": [
        {
          "internalType": "contract ConditionalTokens",
          "name": "",
          "type": "address"
        }
      ],
      "stateMutability": "view",
      "type": "function"
    },
    {
      "inputs": [
        {
          "internalType": "string",
          "name": "question",
          "type": "string"
        },
        {
          "internalType": "string[]",
          "name": "outcomes",
          "type": "string[]"
        },
        {
          "internalType": "uint256",
          "name": "endTime",
          "type": "uint256"
        },
        {
          "internalType": "address",
          "name": "oracle",
          "type": "address"
        }
      ],
      "name": "createCategoricalMarket",
      "outputs": [
        {
          "internalType": "bytes32",
          "name": "marketId",
          "type": "bytes32"
        }
      ],
      "stateMutability": "nonpayable",
      "type": "function"
    },
    {
      "inputs": [
        {
          "internalType": "string",
          "name": "question",
          "type": "string"
        },
        {
          "internalType": "uint256",
          "name": "minValue",
          "type": "uint256"
        },
        {
          "internalType": "uint256",
          "name": "maxValue",
          "type": "uint256"
        },
        {
          "internalType": "uint256",
          "name": "endTime",
          "type": "uint256"
        },
        {
          "internalType": "address",
          "name": "oracle",
          "type": "address"
        }
      ],
      "name": "createScalarMarket",
      "outputs": [
        {
          "internalType": "bytes32",
          "name": "marketId",
          "type": "bytes32"
        }
      ],
      "stateMutability": "nonpayable",
      "type": "function"
    },
    {
      "inputs": [
        {
          "internalType": "bytes32",
          "name": "",
          "type": "bytes32"
        }
      ],
      "name": "markets",
      "outputs": [
        {
          "internalType": "string",
          "name": "question",
          "type": "string"
        },
        {
          "internalType": "uint256",
          "name": "endTime",
          "type": "uint256"
        },
        {
          "internalType": "address",
          "name": "oracle",
          "type": "address"
        },
        {
          "internalType": "bool",
          "name": "resolved",
          "type": "bool"
        },
        {
          "internalType": "uint256",
          "name": "winningOutcome",
          "type": "uint256"
        },
        {
          "internalType": "enum MultiOutcomeMarket.MarketType",
          "name": "marketType",
          "type": "uint8"
        }
      ],
      "stateMutability": "view",
      "type": "function"
    },
    {
      "inputs": [
        {
          "internalType": "bytes32",
          "name": "",
          "type": "bytes32"
        },
        {
          "internalType": "uint256",
          "name": "",
          "type": "uint256"
        }
      ],
      "name": "outcomePrices",
      "outputs": [
        {
          "internalType": "uint256",
          "name": "",
          "type": "uint256"
        }
      ],
      "stateMutability": "view",
      "type": "function"
    },
    {
      "inputs": [
        {
          "internalType": "bytes32",
          "name": "marketId",
          "type": "bytes32"
        },
        {
          "internalType": "uint256",
          "name": "winningOutcome",
          "type": "uint256"
        }
      ],
      "name": "resolveMarket",
      "outputs": [],
      "stateMutability": "nonpayable",
      "type": "function"
    }
  ],
  "bytecode": "0x60806040523480156200001157600080fd5b5060405162001e4838038062001e488339818101604052810190620000379190620000e9565b80600260006101000a81548173ffffffffffffffffffffffffffffffffffffffff021916908373ffffffffffffffffffffffffffffffffffffffff160217905550506200011b565b600080fd5b600073ffffffffffffffffffffffffffffffffffffffff82169050919050565b6000620000b18262000084565b9050919050565b620000c381620000a4565b8114620000cf57600080fd5b50565b600081519050620000e381620000b8565b92915050565b6000602082840312156200010257620001016200007f565b5b60006200011284828501620000d2565b91505092915050565b611d1d806200012b6000396000f3fe608060405234801561001057600080fd5b50600436106100625760003560e01c80630fe5f3be14610067578063590f4cb3146100975780635bd9e299146100b3578063644ff8a0146100d15780637564912b1461010157806387ffafd114610136575b600080fd5b610081600480360381019061007c9190610c90565b610166565b60405161008e9190610cdf565b60405180910390f35b6100b160048036038101906100ac9190610c90565b61018b565b005b6100bb610331565b6040516100c89190610d79565b60405180910390f35b6100eb60048036038101906100e69190610e37565b610357565b6040516100f89190610ee0565b60405180910390f35b61011b60048036038101906101169190610efb565b610649565b60405161012d96959493929190611059565b60405180910390f35b610150600480360381019061014b9190611117565b610747565b60405161015d9190610ee0565b60405180910390f35b6001602052816000526040600020602052806000526040600020600091509150505481565b600080600084815260200190815260200160002090508060030160009054906101000a900473ffffffffffffffffffffffffffffffffffffffff1673ffffffffffffffffffffffffffffffffffffffff163373ffffffffffffffffffffffffffffffffffffffff1614610233576040517f08c379a000000000000000000000000000000000000000000000000000000000815260040161022a9061120a565b60405180910390fd5b8060030160149054906101000a900460ff1615610285576040517f08c379a000000000000000000000000000000000000000000000000000000000815260040161027c90611276565b60405180910390fd5b806001018054905082106102ce576040517f08c379a00000000000000000000000000000000000000000000000000000000081526004016102c5906112e2565b60405180910390fd5b60018160030160146101000a81548160ff021916908315150217905550818160040181905550827fad240fac7c25c6e791819f11e8d7d57c999d23289ef3ad025790f3249b23e865836040516103249190610cdf565b60405180910390a2505050565b600260009054906101000a900473ffffffffffffffffffffffffffffffffffffffff1681565b60008686423360405160200161037094939291906113aa565b6040516020818303038152906040528051906020012090506000600267ffffffffffffffff8111156103a5576103a46113e5565b5b6040519080825280602002602001820160405280156103d857816020015b60608152602001906001900390816103c35790505b5090506103e4866109ae565b6040516020016103f49190611491565b60405160208183030381529060405281600081518110610417576104166114b3565b5b602002602001018190525061042b856109ae565b60405160200161043b919061152e565b6040516020818303038152906040528160018151811061045e5761045d6114b3565b5b60200260200101819052506040518060e0016040528089898080601f016020809104026020016040519081016040528093929190818152602001838380828437600081840152601f19601f8201169050808301925050505050505081526020018281526020018581526020018473ffffffffffffffffffffffffffffffffffffffff1681526020016000151581526020016000815260200160028081111561050957610508610fe2565b5b81525060008084815260200190815260200160002060008201518160000190816105339190611752565b506020820151816001019080519060200190610550929190610b36565b506040820151816002015560608201518160030160006101000a81548173ffffffffffffffffffffffffffffffffffffffff021916908373ffffffffffffffffffffffffffffffffffffffff16021790555060808201518160030160146101000a81548160ff02191690831515021790555060a0820151816004015560c08201518160050160006101000a81548160ff021916908360028111156105f7576105f6610fe2565b5b0217905550905050817f8e05d5a91315cffc0eb2b6c6fa7585169bc6b6337365321011ee73b414f7e7a28989600280604051610636949392919061188c565b60405180910390a2509695505050505050565b600060205280600052604060002060009150905080600001805461066c9061157f565b80601f01602080910402602001604051908101604052809291908181526020018280546106989061157f565b80156106e55780601f106106ba576101008083540402835291602001916106e5565b820191906000526020600020905b8154815290600101906020018083116106c857829003601f168201915b5050505050908060020154908060030160009054906101000a900473ffffffffffffffffffffffffffffffffffffffff16908060030160149054906101000a900460ff16908060040154908060050160009054906101000a900460ff16905086565b60006003858590501015610790576040517f08c379a00000000000000000000000000000000000000000000000000000000081526004016107879061193e565b60405180910390fd5b868642336040516020016107a794939291906113aa565b6040516020818303038152906040528051906020012090506040518060e0016040528088888080601f016020809104026020016040519081016040528093929190818152602001838380828437600081840152601f19601f8201169050808301925050505050505081526020018686906108219190611b03565b81526020018481526020018373ffffffffffffffffffffffffffffffffffffffff168152602001600015158152602001600081526020016001600281111561086c5761086b610fe2565b5b81525060008083815260200190815260200160002060008201518160000190816108969190611752565b5060208201518160010190805190602001906108b3929190610b36565b506040820151816002015560608201518160030160006101000a81548173ffffffffffffffffffffffffffffffffffffffff021916908373ffffffffffffffffffffffffffffffffffffffff16021790555060808201518160030160146101000a81548160ff02191690831515021790555060a0820151816004015560c08201518160050160006101000a81548160ff0219169083600281111561095a57610959610fe2565b5b0217905550905050807f8e05d5a91315cffc0eb2b6c6fa7585169bc6b6337365321011ee73b414f7e7a2888860018989905060405161099c9493929190611b18565b60405180910390a29695505050505050565b6060600082036109f5576040518060400160405280600181526020017f30000000000000000000000000000000000000000000000000000000000000008152509050610b31565b600082905060005b60008214610a27578080610a1090611b87565b915050600a82610a209190611bfe565b91506109fd565b60008167ffffffffffffffff811115610a4357610a426113e5565b5b6040519080825280601f01601f191660200182016040528015610a755781602001600182028036833780820191505090505b50905060008290505b60008614610b2957600181610a939190611c2f565b90506000600a8088610aa59190611bfe565b610aaf9190611c63565b87610aba9190611c2f565b6030610ac69190611cb2565b905060008160f81b905080848481518110610ae457610ae36114b3565b5b60200101907effffffffffffffffffffffffffffffffffffffffffffffffffffffffffffff1916908160001a905350600a88610b209190611bfe565b97505050610a7e565b819450505050505b919050565b828054828255906000526020600020908101928215610b7e579160200282015b82811115610b7d578251829081610b6d9190611752565b5091602001919060010190610b56565b5b509050610b8b9190610b8f565b5090565b5b80821115610baf5760008181610ba69190610bb3565b50600101610b90565b5090565b508054610bbf9061157f565b6000825580601f10610bd15750610bf0565b601f016020900490600052602060002090810190610bef9190610bf3565b5b50565b5b80821115610c0c576000816000905550600101610bf4565b5090565b6000604051905090565b600080fd5b600080fd5b6000819050919050565b610c3781610c24565b8114610c4257600080fd5b50565b600081359050610c5481610c2e565b92915050565b6000819050919050565b610c6d81610c5a565b8114610c7857600080fd5b50565b600081359050610c8a81610c64565b92915050565b60008060408385031215610ca757610ca6610c1a565b5b6000610cb585828601610c45565b9250506020610cc685828601610c7b565b9150509250929050565b610cd981610c5a565b82525050565b6000602082019050610cf46000830184610cd0565b92915050565b600073ffffffffffffffffffffffffffffffffffffffff82169050919050565b6000819050919050565b6000610d3f610d3a610d3584610cfa565b610d1a565b610cfa565b9050919050565b6000610d5182610d24565b9050919050565b6000610d6382610d46565b9050919050565b610d7381610d58565b82525050565b6000602082019050610d8e6000830184610d6a565b92915050565b600080fd5b600080fd5b600080fd5b60008083601f840112610db957610db8610d94565b5b8235905067ffffffffffffffff811115610dd657610dd5610d99565b5b602083019150836001820283011115610df257610df1610d9e565b5b9250929050565b6000610e0482610cfa565b9050919050565b610e1481610df9565b8114610e1f57600080fd5b50565b600081359050610e3181610e0b565b92915050565b60008060008060008060a08789031215610e5457610e53610c1a565b5b600087013567ffffffffffffffff811115610e7257610e71610c1f565b5b610e7e89828a01610da3565b96509650506020610e9189828a01610c7b565b9450506040610ea289828a01610c7b565b9350506060610eb389828a01610c7b565b9250506080610ec489828a01610e22565b9150509295509295509295565b610eda81610c24565b82525050565b6000602082019050610ef56000830184610ed1565b92915050565b600060208284031215610f1157610f10610c1a565b5b6000610f1f84828501610c45565b91505092915050565b600081519050919050565b600082825260208201905092915050565b60005b83811015610f62578082015181840152602081019050610f47565b60008484015250505050565b6000601f19601f8301169050919050565b6000610f8a82610f28565b610f948185610f33565b9350610fa4818560208601610f44565b610fad81610f6e565b840191505092915050565b610fc181610df9565b82525050565b60008115159050919050565b610fdc81610fc7565b82525050565b7f4e487b7100000000000000000000000000000000000000000000000000000000600052602160045260246000fd5b6003811061102257611021610fe2565b5b50565b600081905061103382611011565b919050565b600061104382611025565b9050919050565b61105381611038565b82525050565b600060c08201905081810360008301526110738189610f7f565b90506110826020830188610cd0565b61108f6040830187610fb8565b61109c6060830186610fd3565b6110a96080830185610cd0565b6110b660a083018461104a565b979650505050505050565b60008083601f8401126110d7576110d6610d94565b5b8235905067ffffffffffffffff8111156110f4576110f3610d99565b5b6020830191508360208202830111156111105761110f610d9e565b5b9250929050565b6000806000806000806080878903121561113457611133610c1a565b5b600087013567ffffffffffffffff81111561115257611151610c1f565b5b61115e89828a01610da3565b9650965050602087013567ffffffffffffffff81111561118157611180610c1f565b5b61118d89828a016110c1565b945094505060406111a089828a01610c7b565b92505060606111b189828a01610e22565b9150509295509295509295565b7f4f6e6c79206f7261636c652063616e207265736f6c7665000000000000000000600082015250565b60006111f4601783610f33565b91506111ff826111be565b602082019050919050565b60006020820190508181036000830152611223816111e7565b9050919050565b7f416c7265616479207265736f6c76656400000000000000000000000000000000600082015250565b6000611260601083610f33565b915061126b8261122a565b602082019050919050565b6000602082019050818103600083015261128f81611253565b9050919050565b7f496e76616c6964206f7574636f6d650000000000000000000000000000000000600082015250565b60006112cc600f83610f33565b91506112d782611296565b602082019050919050565b600060208201905081810360008301526112fb816112bf565b9050919050565b600081905092915050565b82818337600083830152505050565b60006113288385611302565b935061133583858461130d565b82840190509392505050565b6000819050919050565b61135c61135782610c5a565b611341565b82525050565b60008160601b9050919050565b600061137a82611362565b9050919050565b600061138c8261136f565b9050919050565b6113a461139f82610df9565b611381565b82525050565b60006113b782868861131c565b91506113c3828561134b565b6020820191506113d38284611393565b60148201915081905095945050505050565b7f4e487b7100000000000000000000000000000000000000000000000000000000600052604160045260246000fd5b7f42656c6f77200000000000000000000000000000000000000000000000000000600082015250565b600061144a600683611302565b915061145582611414565b600682019050919050565b600061146b82610f28565b6114758185611302565b9350611485818560208601610f44565b80840191505092915050565b600061149c8261143d565b91506114a88284611460565b915081905092915050565b7f4e487b7100000000000000000000000000000000000000000000000000000000600052603260045260246000fd5b7f41626f7665200000000000000000000000000000000000000000000000000000600082015250565b6000611518600683611302565b9150611523826114e2565b600682019050919050565b60006115398261150b565b91506115458284611460565b915081905092915050565b7f4e487b7100000000000000000000000000000000000000000000000000000000600052602260045260246000fd5b6000600282049050600182168061159757607f821691505b6020821081036115aa576115a9611550565b5b50919050565b60008190508160005260206000209050919050565b60006020601f8301049050919050565b600082821b905092915050565b6000600883026116127fffffffffffffffffffffffffffffffffffffffffffffffffffffffffffffffff826115d5565b61161c86836115d5565b95508019841693508086168417925050509392505050565b600061164f61164a61164584610c5a565b610d1a565b610c5a565b9050919050565b6000819050919050565b61166983611634565b61167d61167582611656565b8484546115e2565b825550505050565b600090565b611692611685565b61169d818484611660565b505050565b5b818110156116c1576116b660008261168a565b6001810190506116a3565b5050565b601f821115611706576116d7816115b0565b6116e0846115c5565b810160208510156116ef578190505b6117036116fb856115c5565b8301826116a2565b50505b505050565b600082821c905092915050565b60006117296000198460080261170b565b1980831691505092915050565b60006117428383611718565b9150826002028217905092915050565b61175b82610f28565b67ffffffffffffffff811115611774576117736113e5565b5b61177e825461157f565b6117898282856116c5565b600060209050601f8311600181146117bc57600084156117aa578287015190505b6117b48582611736565b86555061181c565b601f1984166117ca866115b0565b60005b828110156117f2578489015182556001820191506020850194506020810190506117cd565b8683101561180f578489015161180b601f891682611718565b8355505b6001600288020188555050505b505050505050565b60006118308385610f33565b935061183d83858461130d565b61184683610f6e565b840190509392505050565b6000819050919050565b600061187661187161186c84611851565b610d1a565b610c5a565b9050919050565b6118868161185b565b82525050565b600060608201905081810360008301526118a7818688611824565b90506118b6602083018561104a565b6118c3604083018461187d565b95945050505050565b7f43617465676f726963616c206d61726b657473206e65656420332b206f75746360008201527f6f6d657300000000000000000000000000000000000000000000000000000000602082015250565b6000611928602483610f33565b9150611933826118cc565b604082019050919050565b600060208201905081810360008301526119578161191b565b9050919050565b61196782610f6e565b810181811067ffffffffffffffff82111715611986576119856113e5565b5b80604052505050565b6000611999610c10565b90506119a5828261195e565b919050565b600067ffffffffffffffff8211156119c5576119c46113e5565b5b602082029050602081019050919050565b600080fd5b600067ffffffffffffffff8211156119f6576119f56113e5565b5b6119ff82610f6e565b9050602081019050919050565b6000611a1f611a1a846119db565b61198f565b905082815260208101848484011115611a3b57611a3a6119d6565b5b611a4684828561130d565b509392505050565b600082601f830112611a6357611a62610d94565b5b8135611a73848260208601611a0c565b91505092915050565b6000611a8f611a8a846119aa565b61198f565b90508083825260208201905060208402830185811115611ab257611ab1610d9e565b5b835b81811015611af957803567ffffffffffffffff811115611ad757611ad6610d94565b5b808601611ae48982611a4e565b85526020850194505050602081019050611ab4565b5050509392505050565b6000611b10368484611a7c565b905092915050565b60006060820190508181036000830152611b33818688611824565b9050611b42602083018561104a565b611b4f6040830184610cd0565b95945050505050565b7f4e487b7100000000000000000000000000000000000000000000000000000000600052601160045260246000fd5b6000611b9282610c5a565b91507fffffffffffffffffffffffffffffffffffffffffffffffffffffffffffffffff8203611bc457611bc3611b58565b5b600182019050919050565b7f4e487b7100000000000000000000000000000000000000000000000000000000600052601260045260246000fd5b6000611c0982610c5a565b9150611c1483610c5a565b925082611c2457611c23611bcf565b5b828204905092915050565b6000611c3a82610c5a565b9150611c4583610c5a565b9250828203905081811115611c5d57611c5c611b58565b5b92915050565b6000611c6e82610c5a565b9150611c7983610c5a565b9250828202611c8781610c5a565b91508282048414831517611c9e57611c9d611b58565b5b5092915050565b600060ff82169050919050565b6000611cbd82611ca5565b9150611cc883611ca5565b9250828201905060ff811115611ce157611ce0611b58565b5b9291505056fea26469706673582212203b69474967d781a2d46165bdbc3f56c8f8d086179263ce9ebb751c0821f5e27c64736f6c63430008140033",
  "linkReferences": {},
  "deployedLinkReferences": {}
}